{
  "contractName": "AddressContract",
  "abi": [
    {
      "constant": true,
      "inputs": [],
      "name": "issuerContract",
      "outputs": [
        {
          "name": "",
          "type": "address"
        }
      ],
      "payable": false,
      "stateMutability": "view",
      "type": "function"
    },
    {
      "constant": true,
      "inputs": [],
      "name": "customerContract",
      "outputs": [
        {
          "name": "",
          "type": "address"
        }
      ],
      "payable": false,
      "stateMutability": "view",
      "type": "function"
    },
    {
      "inputs": [
        {
          "name": "_issuerContract",
          "type": "address"
        }
      ],
      "payable": false,
      "stateMutability": "nonpayable",
      "type": "constructor"
    },
    {
      "constant": false,
      "inputs": [
        {
          "name": "_customerContract",
          "type": "address"
        }
      ],
      "name": "setCustomerIdentity",
      "outputs": [],
      "payable": false,
      "stateMutability": "nonpayable",
      "type": "function"
    }
  ],
  "bytecode": "0x608060405234801561001057600080fd5b5060405160208061028b83398101806040528101908080519060200190929190505050806000806101000a81548173ffffffffffffffffffffffffffffffffffffffff021916908373ffffffffffffffffffffffffffffffffffffffff16021790555050610208806100836000396000f300608060405260043610610057576000357c0100000000000000000000000000000000000000000000000000000000900463ffffffff1680630c43ae9c1461005c578063ad8cb439146100b3578063d62af6331461010a575b600080fd5b34801561006857600080fd5b5061007161014d565b604051808273ffffffffffffffffffffffffffffffffffffffff1673ffffffffffffffffffffffffffffffffffffffff16815260200191505060405180910390f35b3480156100bf57600080fd5b506100c8610172565b604051808273ffffffffffffffffffffffffffffffffffffffff1673ffffffffffffffffffffffffffffffffffffffff16815260200191505060405180910390f35b34801561011657600080fd5b5061014b600480360381019080803573ffffffffffffffffffffffffffffffffffffffff169060200190929190505050610198565b005b6000809054906101000a900473ffffffffffffffffffffffffffffffffffffffff1681565b600160009054906101000a900473ffffffffffffffffffffffffffffffffffffffff1681565b80600160006101000a81548173ffffffffffffffffffffffffffffffffffffffff021916908373ffffffffffffffffffffffffffffffffffffffff160217905550505600a165627a7a72305820bd9a22dce475f500133ce4bc78f30248fce28e16d0833e1d460d836af59433680029",
  "source": "pragma solidity ^0.4.25;\nimport './ClaimHolder.sol';\ncontract AddressContract{\n  ClaimHolder public issuerContract;\n  ClaimHolder public customerContract;\n  constructor(address _issuerContract) public{\n      issuerContract=ClaimHolder(_issuerContract);\n  }\n  function setCustomerIdentity(address _customerContract) public {\n    customerContract=ClaimHolder(_customerContract);\n  }\n}\n",
  "sourcePath": "/home/magneto/ethereum/ERC725/contracts/AddressContract.sol",
  "compiler": {
    "name": "solc",
    "version": "0.4.25+commit.59dbf8f1.Emscripten.clang"
  },
  "schemaVersion": "2.0.2",
  "updatedAt": "2019-04-18T15:44:04.131Z"
}