{
  "contractName": "ClaimVerifier",
  "abi": [
    {
      "constant": true,
      "inputs": [],
      "name": "trustedClaimHolder",
      "outputs": [
        {
          "name": "",
          "type": "address"
        }
      ],
      "payable": false,
      "stateMutability": "view",
      "type": "function"
    },
    {
      "constant": true,
      "inputs": [],
      "name": "trust",
      "outputs": [
        {
          "name": "",
          "type": "address"
        }
      ],
      "payable": false,
      "stateMutability": "view",
      "type": "function"
    },
    {
      "inputs": [
        {
          "name": "_trustedClaimHolder",
          "type": "address"
        }
      ],
      "payable": false,
      "stateMutability": "nonpayable",
      "type": "constructor"
    },
    {
      "anonymous": false,
      "inputs": [
        {
          "indexed": false,
          "name": "_identity",
          "type": "address"
        },
        {
          "indexed": false,
          "name": "claimType",
          "type": "uint256"
        }
      ],
      "name": "ClaimValid",
      "type": "event"
    },
    {
      "anonymous": false,
      "inputs": [
        {
          "indexed": false,
          "name": "_identity",
          "type": "address"
        },
        {
          "indexed": false,
          "name": "claimType",
          "type": "uint256"
        }
      ],
      "name": "ClaimInvalid",
      "type": "event"
    },
    {
      "constant": false,
      "inputs": [
        {
          "name": "_identity",
          "type": "address"
        },
        {
          "name": "claimType",
          "type": "uint256"
        }
      ],
      "name": "checkClaim",
      "outputs": [
        {
          "name": "claimValid",
          "type": "bool"
        }
      ],
      "payable": false,
      "stateMutability": "nonpayable",
      "type": "function"
    },
    {
      "constant": true,
      "inputs": [
        {
          "name": "_identity",
          "type": "address"
        },
        {
          "name": "claimType",
          "type": "uint256"
        }
      ],
      "name": "claimIsValid",
      "outputs": [
        {
          "name": "claimValid",
          "type": "bool"
        }
      ],
      "payable": false,
      "stateMutability": "view",
      "type": "function"
    },
    {
      "constant": true,
      "inputs": [
        {
          "name": "r",
          "type": "bytes32"
        },
        {
          "name": "s",
          "type": "bytes32"
        },
        {
          "name": "v",
          "type": "uint8"
        },
        {
          "name": "dataHash",
          "type": "bytes32"
        }
      ],
      "name": "getRecoveredAddress",
      "outputs": [
        {
          "name": "addr",
          "type": "address"
        }
      ],
      "payable": false,
      "stateMutability": "view",
      "type": "function"
    }
  ],
  "bytecode": "0x608060405234801561001057600080fd5b5060405160208061096a8339810180604052810190808051906020019092919050505080600160006101000a81548173ffffffffffffffffffffffffffffffffffffffff021916908373ffffffffffffffffffffffffffffffffffffffff160217905550806000806101000a81548173ffffffffffffffffffffffffffffffffffffffff021916908373ffffffffffffffffffffffffffffffffffffffff160217905550506108a6806100c46000396000f30060806040526004361061006d576000357c0100000000000000000000000000000000000000000000000000000000900463ffffffff1680630382ad261461007257806336938354146100d75780636f9fdd661461012e5780639fecd55414610185578063b42f0782146101ea575b600080fd5b34801561007e57600080fd5b506100bd600480360381019080803573ffffffffffffffffffffffffffffffffffffffff16906020019092919080359060200190929190505050610284565b604051808215151515815260200191505060405180910390f35b3480156100e357600080fd5b506100ec61037f565b604051808273ffffffffffffffffffffffffffffffffffffffff1673ffffffffffffffffffffffffffffffffffffffff16815260200191505060405180910390f35b34801561013a57600080fd5b506101436103a4565b604051808273ffffffffffffffffffffffffffffffffffffffff1673ffffffffffffffffffffffffffffffffffffffff16815260200191505060405180910390f35b34801561019157600080fd5b506101d0600480360381019080803573ffffffffffffffffffffffffffffffffffffffff169060200190929190803590602001909291905050506103ca565b604051808215151515815260200191505060405180910390f35b3480156101f657600080fd5b5061024260048036038101908080356000191690602001909291908035600019169060200190929190803560ff16906020019092919080356000191690602001909291905050506107e8565b604051808273ffffffffffffffffffffffffffffffffffffffff1673ffffffffffffffffffffffffffffffffffffffff16815260200191505060405180910390f35b600061029083836103ca565b15610309577f5637aa6b77cde2de563765b75a65099af73d3bf22cb9d089a64a01777823208e8383604051808373ffffffffffffffffffffffffffffffffffffffff1673ffffffffffffffffffffffffffffffffffffffff1681526020018281526020019250505060405180910390a160019050610379565b7fc1e461cfcaa9ff5efbb053582a325fbfebec1d94ac7e9d9958ee7f74c2b6b5588383604051808373ffffffffffffffffffffffffffffffffffffffff1673ffffffffffffffffffffffffffffffffffffffff1681526020018281526020019250505060405180910390a1600090505b92915050565b6000809054906101000a900473ffffffffffffffffffffffffffffffffffffffff1681565b600160009054906101000a900473ffffffffffffffffffffffffffffffffffffffff1681565b6000806000806000806000606060008060008060008060009054906101000a900473ffffffffffffffffffffffffffffffffffffffff168e604051808373ffffffffffffffffffffffffffffffffffffffff1673ffffffffffffffffffffffffffffffffffffffff166c0100000000000000000000000002815260140182815260200192505050604051809103902094508e73ffffffffffffffffffffffffffffffffffffffff1663c9100bcb866040518263ffffffff167c0100000000000000000000000000000000000000000000000000000000028152600401808260001916600019168152602001915050600060405180830381600087803b1580156104d257600080fd5b505af11580156104e6573d6000803e3d6000fd5b505050506040513d6000823e3d601f19601f8201168201806040525060a081101561051057600080fd5b8101908080519060200190929190805190602001909291908051906020019092919080519060200190929190805164010000000081111561055057600080fd5b8281019050602081018481111561056657600080fd5b815185600182028301116401000000008211171561058357600080fd5b5050929190505050809a50819b50829c50839d50849e5050505050508e8e87604051808473ffffffffffffffffffffffffffffffffffffffff1673ffffffffffffffffffffffffffffffffffffffff166c0100000000000000000000000002815260140183815260200182805190602001908083835b60208310151561061e57805182526020820191506020810190506020830392506105f9565b6001836020036101000a0380198251168184511680821785525050505050509050019350505050604051809103902093508360405180807f19457468657265756d205369676e6564204d6573736167653a0a333200000000815250601c018260001916600019168152602001915050604051809103902092506106a3898989866107e8565b915081604051808273ffffffffffffffffffffffffffffffffffffffff1673ffffffffffffffffffffffffffffffffffffffff166c01000000000000000000000000028152601401915050604051809103902090506000809054906101000a900473ffffffffffffffffffffffffffffffffffffffff1673ffffffffffffffffffffffffffffffffffffffff1663d202158d8260036040518363ffffffff167c010000000000000000000000000000000000000000000000000000000002815260040180836000191660001916815260200182815260200192505050602060405180830381600087803b15801561079957600080fd5b505af11580156107ad573d6000803e3d6000fd5b505050506040513d60208110156107c357600080fd5b81019080805190602001909291905050509c5050505050505050505050505092915050565b600080600183858888604051600081526020016040526040518085600019166000191681526020018460ff1660ff1681526020018360001916600019168152602001826000191660001916815260200194505050505060206040516020810390808403906000865af1158015610862573d6000803e3d6000fd5b505050602060405103519050809150509493505050505600a165627a7a72305820491d2c830564ee30792ae71b977dff003f40a52f4a1f1c3b216d2a80737cb9160029",
  "source": "pragma solidity ^0.4.25;\n\nimport './ClaimHolder.sol';\n\ncontract ClaimVerifier {\n\n  event ClaimValid(ClaimHolder _identity, uint256 claimType);\n  event ClaimInvalid(ClaimHolder _identity, uint256 claimType);\n\n  ClaimHolder public trustedClaimHolder;\n  address public trust;\n\n   constructor(address _trustedClaimHolder) public {\n     trust=_trustedClaimHolder;\n    trustedClaimHolder = ClaimHolder(_trustedClaimHolder);\n  }\n\n  function checkClaim(ClaimHolder _identity, uint256 claimType)\n    public\n    returns (bool claimValid)\n  {\n    if (claimIsValid(_identity, claimType)) {\n      emit ClaimValid(_identity, claimType);\n      return true;\n    } else {\n      emit ClaimInvalid(_identity, claimType);\n      return false;\n    }\n  }\n\n  function claimIsValid(ClaimHolder _identity, uint256 claimType)\n    public\n    constant\n    returns (bool claimValid)\n  {\n    uint256 foundClaimType;\n    uint256 scheme;\n    address issuer;\n    bytes32 r;\n    bytes32 s;\n    uint8 v;\n    bytes memory data;\n\n    // Construct claimId (identifier + claim type)\n    bytes32 claimId = keccak256(trustedClaimHolder, claimType);\n\n    // Fetch claim from user\n    ( issuer, r,s,v, data) = _identity.getClaim(claimId);\n\n    bytes32 dataHash = keccak256(_identity, claimType, data);\n    bytes32 prefixedHash = keccak256(\"\\x19Ethereum Signed Message:\\n32\", dataHash);\n\n    // Recover address of data signer\n    address recovered = getRecoveredAddress(r,s,v, prefixedHash);\n\n    // Take hash of recovered address\n    bytes32 hashedAddr = keccak256(recovered);\n\n    // Does the trusted identifier have they key which signed the user's claim?\n    return trustedClaimHolder.keyHasPurpose(hashedAddr, 3);\n  }\n\n  function getRecoveredAddress(bytes32 r,bytes32 s,uint8 v, bytes32 dataHash)\n      public\n      view\n      returns (address addr)\n  {\n      /* bytes32 ra;\n      bytes32 sa;\n      uint8 va;\n\n      // Check the signature length\n      if (sig.length != 65) {\n        return (0);\n      }\n\n      // Divide the signature in r, s and v variables\n      assembly {\n        ra := mload(add(sig, 32))\n        sa := mload(add(sig, 64))\n        va := byte(0, mload(add(sig, 96)))\n      }\n\n      if (va < 27) {\n        va += 27;\n      } */\n\n      address recoveredAddress = ecrecover(dataHash, v, r, s);\n\n      return (recoveredAddress);\n  }\n}\n",
  "sourcePath": "/home/magneto/ethereum/ERC725/contracts/ClaimVerifier.sol",
  "compiler": {
    "name": "solc",
    "version": "0.4.25+commit.59dbf8f1.Emscripten.clang"
  },
  "schemaVersion": "2.0.2",
  "updatedAt": "2019-04-18T14:15:05.963Z"
}