{
  "contractName": "ClaimVerifier",
  "abi": [
    {
      "constant": true,
      "inputs": [],
      "name": "trustedClaimHolder",
      "outputs": [
        {
          "name": "",
          "type": "address"
        }
      ],
      "payable": false,
      "stateMutability": "view",
      "type": "function"
    },
    {
      "constant": true,
      "inputs": [],
      "name": "trust",
      "outputs": [
        {
          "name": "",
          "type": "address"
        }
      ],
      "payable": false,
      "stateMutability": "view",
      "type": "function"
    },
    {
      "inputs": [
        {
          "name": "_trustedClaimHolder",
          "type": "address"
        }
      ],
      "payable": false,
      "stateMutability": "nonpayable",
      "type": "constructor"
    },
    {
      "anonymous": false,
      "inputs": [
        {
          "indexed": false,
          "name": "_identity",
          "type": "address"
        },
        {
          "indexed": false,
          "name": "claimType",
          "type": "uint256"
        }
      ],
      "name": "ClaimValid",
      "type": "event"
    },
    {
      "anonymous": false,
      "inputs": [
        {
          "indexed": false,
          "name": "_identity",
          "type": "address"
        },
        {
          "indexed": false,
          "name": "claimType",
          "type": "uint256"
        }
      ],
      "name": "ClaimInvalid",
      "type": "event"
    },
    {
      "constant": false,
      "inputs": [
        {
          "name": "_identity",
          "type": "address"
        },
        {
          "name": "claimType",
          "type": "uint256"
        }
      ],
      "name": "checkClaim",
      "outputs": [
        {
          "name": "claimValid",
          "type": "bool"
        }
      ],
      "payable": false,
      "stateMutability": "nonpayable",
      "type": "function"
    },
    {
      "constant": true,
      "inputs": [
        {
          "name": "_identity",
          "type": "address"
        },
        {
          "name": "claimType",
          "type": "uint256"
        }
      ],
      "name": "claimIsValid",
      "outputs": [
        {
          "name": "claimValid",
          "type": "bool"
        }
      ],
      "payable": false,
      "stateMutability": "view",
      "type": "function"
    },
    {
      "constant": true,
      "inputs": [
        {
          "name": "sig",
          "type": "bytes"
        },
        {
          "name": "dataHash",
          "type": "bytes32"
        }
      ],
      "name": "getRecoveredAddress",
      "outputs": [
        {
          "name": "addr",
          "type": "address"
        }
      ],
      "payable": false,
      "stateMutability": "view",
      "type": "function"
    }
  ],
  "bytecode": "0x608060405234801561001057600080fd5b50604051602080610a5a8339810180604052810190808051906020019092919050505080600160006101000a81548173ffffffffffffffffffffffffffffffffffffffff021916908373ffffffffffffffffffffffffffffffffffffffff160217905550806000806101000a81548173ffffffffffffffffffffffffffffffffffffffff021916908373ffffffffffffffffffffffffffffffffffffffff16021790555050610996806100c46000396000f30060806040526004361061006d576000357c0100000000000000000000000000000000000000000000000000000000900463ffffffff1680630382ad261461007257806336938354146100d75780636f9fdd661461012e5780639fecd55414610185578063c3b129e3146101ea575b600080fd5b34801561007e57600080fd5b506100bd600480360381019080803573ffffffffffffffffffffffffffffffffffffffff169060200190929190803590602001909291905050506102a1565b604051808215151515815260200191505060405180910390f35b3480156100e357600080fd5b506100ec61039c565b604051808273ffffffffffffffffffffffffffffffffffffffff1673ffffffffffffffffffffffffffffffffffffffff16815260200191505060405180910390f35b34801561013a57600080fd5b506101436103c1565b604051808273ffffffffffffffffffffffffffffffffffffffff1673ffffffffffffffffffffffffffffffffffffffff16815260200191505060405180910390f35b34801561019157600080fd5b506101d0600480360381019080803573ffffffffffffffffffffffffffffffffffffffff169060200190929190803590602001909291905050506103e7565b604051808215151515815260200191505060405180910390f35b3480156101f657600080fd5b5061025f600480360381019080803590602001908201803590602001908080601f01602080910402602001604051908101604052809392919081815260200183838082843782019150505050505091929192908035600019169060200190929190505050610892565b604051808273ffffffffffffffffffffffffffffffffffffffff1673ffffffffffffffffffffffffffffffffffffffff16815260200191505060405180910390f35b60006102ad83836103e7565b15610326577f5637aa6b77cde2de563765b75a65099af73d3bf22cb9d089a64a01777823208e8383604051808373ffffffffffffffffffffffffffffffffffffffff1673ffffffffffffffffffffffffffffffffffffffff1681526020018281526020019250505060405180910390a160019050610396565b7fc1e461cfcaa9ff5efbb053582a325fbfebec1d94ac7e9d9958ee7f74c2b6b5588383604051808373ffffffffffffffffffffffffffffffffffffffff1673ffffffffffffffffffffffffffffffffffffffff1681526020018281526020019250505060405180910390a1600090505b92915050565b6000809054906101000a900473ffffffffffffffffffffffffffffffffffffffff1681565b600160009054906101000a900473ffffffffffffffffffffffffffffffffffffffff1681565b60008060008060608060008060008060008060009054906101000a900473ffffffffffffffffffffffffffffffffffffffff168c604051808373ffffffffffffffffffffffffffffffffffffffff1673ffffffffffffffffffffffffffffffffffffffff166c0100000000000000000000000002815260140182815260200192505050604051809103902094508c73ffffffffffffffffffffffffffffffffffffffff1663c9100bcb866040518263ffffffff167c0100000000000000000000000000000000000000000000000000000000028152600401808260001916600019168152602001915050600060405180830381600087803b1580156104eb57600080fd5b505af11580156104ff573d6000803e3d6000fd5b505050506040513d6000823e3d601f19601f8201168201806040525060c081101561052957600080fd5b81019080805190602001909291908051906020019092919080519060200190929190805164010000000081111561055f57600080fd5b8281019050602081018481111561057557600080fd5b815185600182028301116401000000008211171561059257600080fd5b505092919060200180516401000000008111156105ae57600080fd5b828101905060208101848111156105c457600080fd5b81518560018202830111640100000000821117156105e157600080fd5b505092919060200180516401000000008111156105fd57600080fd5b8281019050602081018481111561061357600080fd5b815185600182028301116401000000008211171561063057600080fd5b505092919050505050809a50819b50829c50839d50849e5050505050508c8c87604051808473ffffffffffffffffffffffffffffffffffffffff1673ffffffffffffffffffffffffffffffffffffffff166c0100000000000000000000000002815260140183815260200182805190602001908083835b6020831015156106cc57805182526020820191506020810190506020830392506106a7565b6001836020036101000a0380198251168184511680821785525050505050509050019350505050604051809103902093508360405180807f19457468657265756d205369676e6564204d6573736167653a0a333200000000815250601c0182600019166000191681526020019150506040518091039020925061074f8784610892565b915081604051808273ffffffffffffffffffffffffffffffffffffffff1673ffffffffffffffffffffffffffffffffffffffff166c01000000000000000000000000028152601401915050604051809103902090506000809054906101000a900473ffffffffffffffffffffffffffffffffffffffff1673ffffffffffffffffffffffffffffffffffffffff1663d202158d8260036040518363ffffffff167c010000000000000000000000000000000000000000000000000000000002815260040180836000191660001916815260200182815260200192505050602060405180830381600087803b15801561084557600080fd5b505af1158015610859573d6000803e3d6000fd5b505050506040513d602081101561086f57600080fd5b81019080805190602001909291905050509a505050505050505050505092915050565b6000806000806000604187511415156108ae5760009450610960565b6020870151935060408701519250606087015160001a9150601b8260ff1610156108d957601b820191505b600186838686604051600081526020016040526040518085600019166000191681526020018460ff1660ff1681526020018360001916600019168152602001826000191660001916815260200194505050505060206040516020810390808403906000865af1158015610950573d6000803e3d6000fd5b5050506020604051035190508094505b50505050929150505600a165627a7a723058205b3a3c1e5949b1132d360a7e2b22a6ec85256e3eaf249a9e6abf887cd30042f30029",
  "source": "pragma solidity ^0.4.25;\n\nimport './ClaimHolder.sol';\n\ncontract ClaimVerifier {\n\n  event ClaimValid(ClaimHolder _identity, uint256 claimType);\n  event ClaimInvalid(ClaimHolder _identity, uint256 claimType);\n\n  ClaimHolder public trustedClaimHolder;\n  address public trust;\n\n   constructor(address _trustedClaimHolder) public {\n     trust=_trustedClaimHolder;\n    trustedClaimHolder = ClaimHolder(_trustedClaimHolder);\n  }\n\n  function checkClaim(ClaimHolder _identity, uint256 claimType)\n    public\n    returns (bool claimValid)\n  {\n    if (claimIsValid(_identity, claimType)) {\n      emit ClaimValid(_identity, claimType);\n      return true;\n    } else {\n      emit ClaimInvalid(_identity, claimType);\n      return false;\n    }\n  }\n\n  function claimIsValid(ClaimHolder _identity, uint256 claimType)\n    public\n    constant\n    returns (bool claimValid)\n  {\n    uint256 foundClaimType;\n    uint256 scheme;\n    address issuer;\n    bytes memory sig;\n    bytes memory data;\n\n    // Construct claimId (identifier + claim type)\n    bytes32 claimId = keccak256(trustedClaimHolder, claimType);\n\n    // Fetch claim from user\n    ( foundClaimType, scheme, issuer, sig, data, ) = _identity.getClaim(claimId);\n\n    bytes32 dataHash = keccak256(_identity, claimType, data);\n    bytes32 prefixedHash = keccak256(\"\\x19Ethereum Signed Message:\\n32\", dataHash);\n\n    // Recover address of data signer\n    address recovered = getRecoveredAddress(sig, prefixedHash);\n\n    // Take hash of recovered address\n    bytes32 hashedAddr = keccak256(recovered);\n\n    // Does the trusted identifier have they key which signed the user's claim?\n    return trustedClaimHolder.keyHasPurpose(hashedAddr, 3);\n  }\n\n  function getRecoveredAddress(bytes sig, bytes32 dataHash)\n      public\n      view\n      returns (address addr)\n  {\n      bytes32 ra;\n      bytes32 sa;\n      uint8 va;\n\n      // Check the signature length\n      if (sig.length != 65) {\n        return (0);\n      }\n\n      // Divide the signature in r, s and v variables\n      assembly {\n        ra := mload(add(sig, 32))\n        sa := mload(add(sig, 64))\n        va := byte(0, mload(add(sig, 96)))\n      }\n\n      if (va < 27) {\n        va += 27;\n      }\n\n      address recoveredAddress = ecrecover(dataHash, va, ra, sa);\n\n      return (recoveredAddress);\n  }\n\n}\n",
  "sourcePath": "/home/magneto/ethereum/ERC725/contracts/ClaimVerifier.sol",
  "compiler": {
    "name": "solc",
    "version": "0.4.25+commit.59dbf8f1.Emscripten.clang"
  },
  "schemaVersion": "2.0.2",
  "updatedAt": "2019-04-08T14:24:08.974Z"
}