{
  "contractName": "ClaimHolder",
  "abi": [
    {
      "constant": true,
      "inputs": [
        {
          "name": "_key",
          "type": "bytes32"
        }
      ],
      "name": "getKeyPurpose",
      "outputs": [
        {
          "name": "purpose",
          "type": "uint256"
        }
      ],
      "payable": false,
      "stateMutability": "view",
      "type": "function"
    },
    {
      "constant": true,
      "inputs": [
        {
          "name": "_key",
          "type": "bytes32"
        }
      ],
      "name": "getKey",
      "outputs": [
        {
          "name": "purpose",
          "type": "uint256"
        },
        {
          "name": "keyType",
          "type": "uint256"
        },
        {
          "name": "key",
          "type": "bytes32"
        }
      ],
      "payable": false,
      "stateMutability": "view",
      "type": "function"
    },
    {
      "constant": false,
      "inputs": [
        {
          "name": "_key",
          "type": "bytes32"
        },
        {
          "name": "_purpose",
          "type": "uint256"
        },
        {
          "name": "_keyType",
          "type": "uint256"
        }
      ],
      "name": "addKey",
      "outputs": [
        {
          "name": "success",
          "type": "bool"
        }
      ],
      "payable": false,
      "stateMutability": "nonpayable",
      "type": "function"
    },
    {
      "constant": false,
      "inputs": [
        {
          "name": "_id",
          "type": "uint256"
        },
        {
          "name": "_approve",
          "type": "bool"
        }
      ],
      "name": "approve",
      "outputs": [
        {
          "name": "success",
          "type": "bool"
        }
      ],
      "payable": false,
      "stateMutability": "nonpayable",
      "type": "function"
    },
    {
      "constant": true,
      "inputs": [
        {
          "name": "_addr",
          "type": "address"
        }
      ],
      "name": "getHashed",
      "outputs": [
        {
          "name": "myval",
          "type": "bytes32"
        }
      ],
      "payable": false,
      "stateMutability": "view",
      "type": "function"
    },
    {
      "constant": false,
      "inputs": [
        {
          "name": "_key",
          "type": "bytes32"
        }
      ],
      "name": "removeKey",
      "outputs": [
        {
          "name": "success",
          "type": "bool"
        }
      ],
      "payable": false,
      "stateMutability": "nonpayable",
      "type": "function"
    },
    {
      "constant": true,
      "inputs": [
        {
          "name": "_purpose",
          "type": "uint256"
        }
      ],
      "name": "getKeysByPurpose",
      "outputs": [
        {
          "name": "_keys",
          "type": "bytes32[]"
        }
      ],
      "payable": false,
      "stateMutability": "view",
      "type": "function"
    },
    {
      "constant": false,
      "inputs": [
        {
          "name": "_to",
          "type": "address"
        },
        {
          "name": "_value",
          "type": "uint256"
        },
        {
          "name": "_data",
          "type": "bytes"
        }
      ],
      "name": "execute",
      "outputs": [
        {
          "name": "executionId",
          "type": "uint256"
        }
      ],
      "payable": true,
      "stateMutability": "payable",
      "type": "function"
    },
    {
      "constant": true,
      "inputs": [
        {
          "name": "_key",
          "type": "bytes32"
        },
        {
          "name": "_purpose",
          "type": "uint256"
        }
      ],
      "name": "keyHasPurpose",
      "outputs": [
        {
          "name": "result",
          "type": "bool"
        }
      ],
      "payable": false,
      "stateMutability": "view",
      "type": "function"
    },
    {
      "constant": true,
      "inputs": [
        {
          "name": "_addr",
          "type": "address"
        }
      ],
      "name": "getKeyFromAddress",
      "outputs": [
        {
          "name": "purpose",
          "type": "uint256"
        },
        {
          "name": "keyType",
          "type": "uint256"
        },
        {
          "name": "key",
          "type": "bytes32"
        }
      ],
      "payable": false,
      "stateMutability": "view",
      "type": "function"
    },
    {
      "anonymous": false,
      "inputs": [
        {
          "indexed": true,
          "name": "key",
          "type": "bytes32"
        },
        {
          "indexed": true,
          "name": "purpose",
          "type": "uint256"
        },
        {
          "indexed": true,
          "name": "keyType",
          "type": "uint256"
        }
      ],
      "name": "KeyAdded",
      "type": "event"
    },
    {
      "anonymous": false,
      "inputs": [
        {
          "indexed": true,
          "name": "key",
          "type": "bytes32"
        },
        {
          "indexed": true,
          "name": "purpose",
          "type": "uint256"
        },
        {
          "indexed": true,
          "name": "keyType",
          "type": "uint256"
        }
      ],
      "name": "KeyRemoved",
      "type": "event"
    },
    {
      "anonymous": false,
      "inputs": [
        {
          "indexed": true,
          "name": "executionId",
          "type": "uint256"
        },
        {
          "indexed": true,
          "name": "to",
          "type": "address"
        },
        {
          "indexed": true,
          "name": "value",
          "type": "uint256"
        },
        {
          "indexed": false,
          "name": "data",
          "type": "bytes"
        }
      ],
      "name": "ExecutionRequested",
      "type": "event"
    },
    {
      "anonymous": false,
      "inputs": [
        {
          "indexed": true,
          "name": "executionId",
          "type": "uint256"
        },
        {
          "indexed": true,
          "name": "to",
          "type": "address"
        },
        {
          "indexed": true,
          "name": "value",
          "type": "uint256"
        },
        {
          "indexed": false,
          "name": "data",
          "type": "bytes"
        }
      ],
      "name": "Executed",
      "type": "event"
    },
    {
      "anonymous": false,
      "inputs": [
        {
          "indexed": true,
          "name": "executionId",
          "type": "uint256"
        },
        {
          "indexed": false,
          "name": "approved",
          "type": "bool"
        }
      ],
      "name": "Approved",
      "type": "event"
    },
    {
      "anonymous": false,
      "inputs": [
        {
          "indexed": true,
          "name": "claimRequestId",
          "type": "uint256"
        },
        {
          "indexed": true,
          "name": "claimType",
          "type": "uint256"
        },
        {
          "indexed": false,
          "name": "scheme",
          "type": "uint256"
        },
        {
          "indexed": true,
          "name": "issuer",
          "type": "address"
        },
        {
          "indexed": false,
          "name": "r",
          "type": "bytes32"
        },
        {
          "indexed": false,
          "name": "s",
          "type": "bytes32"
        },
        {
          "indexed": false,
          "name": "v",
          "type": "uint8"
        },
        {
          "indexed": false,
          "name": "data",
          "type": "bytes32"
        },
        {
          "indexed": false,
          "name": "uri",
          "type": "string"
        }
      ],
      "name": "ClaimRequested",
      "type": "event"
    },
    {
      "anonymous": false,
      "inputs": [
        {
          "indexed": true,
          "name": "claimId",
          "type": "bytes32"
        },
        {
          "indexed": true,
          "name": "claimType",
          "type": "uint256"
        },
        {
          "indexed": false,
          "name": "scheme",
          "type": "uint256"
        },
        {
          "indexed": true,
          "name": "issuer",
          "type": "address"
        },
        {
          "indexed": false,
          "name": "data",
          "type": "bytes32"
        },
        {
          "indexed": false,
          "name": "uri",
          "type": "string"
        }
      ],
      "name": "ClaimAdded",
      "type": "event"
    },
    {
      "anonymous": false,
      "inputs": [
        {
          "indexed": true,
          "name": "claimId",
          "type": "bytes32"
        },
        {
          "indexed": true,
          "name": "claimType",
          "type": "uint256"
        },
        {
          "indexed": false,
          "name": "scheme",
          "type": "uint256"
        },
        {
          "indexed": true,
          "name": "issuer",
          "type": "address"
        },
        {
          "indexed": false,
          "name": "data",
          "type": "bytes32"
        },
        {
          "indexed": false,
          "name": "uri",
          "type": "string"
        }
      ],
      "name": "ClaimRemoved",
      "type": "event"
    },
    {
      "anonymous": false,
      "inputs": [
        {
          "indexed": true,
          "name": "claimId",
          "type": "bytes32"
        },
        {
          "indexed": true,
          "name": "claimType",
          "type": "uint256"
        },
        {
          "indexed": false,
          "name": "scheme",
          "type": "uint256"
        },
        {
          "indexed": true,
          "name": "issuer",
          "type": "address"
        },
        {
          "indexed": false,
          "name": "data",
          "type": "bytes32"
        },
        {
          "indexed": false,
          "name": "uri",
          "type": "string"
        }
      ],
      "name": "ClaimChanged",
      "type": "event"
    },
    {
      "constant": true,
      "inputs": [
        {
          "name": "_claimId",
          "type": "bytes32"
        }
      ],
      "name": "getClaim",
      "outputs": [
        {
          "name": "issuer",
          "type": "address"
        },
        {
          "name": "r",
          "type": "bytes32"
        },
        {
          "name": "s",
          "type": "bytes32"
        },
        {
          "name": "v",
          "type": "uint8"
        },
        {
          "name": "data",
          "type": "bytes32"
        }
      ],
      "payable": false,
      "stateMutability": "view",
      "type": "function"
    },
    {
      "constant": true,
      "inputs": [
        {
          "name": "_claimType",
          "type": "uint256"
        }
      ],
      "name": "getClaimIdsByType",
      "outputs": [
        {
          "name": "claimIds",
          "type": "bytes32[]"
        }
      ],
      "payable": false,
      "stateMutability": "view",
      "type": "function"
    },
    {
      "constant": false,
      "inputs": [
        {
          "name": "_claimType",
          "type": "uint256"
        },
        {
          "name": "_scheme",
          "type": "uint256"
        },
        {
          "name": "_issuer",
          "type": "address"
        },
        {
          "name": "r",
          "type": "bytes32"
        },
        {
          "name": "s",
          "type": "bytes32"
        },
        {
          "name": "v",
          "type": "uint8"
        },
        {
          "name": "_data",
          "type": "bytes32"
        },
        {
          "name": "_uri",
          "type": "string"
        }
      ],
      "name": "addClaim",
      "outputs": [
        {
          "name": "claimRequestId",
          "type": "bytes32"
        }
      ],
      "payable": false,
      "stateMutability": "nonpayable",
      "type": "function"
    },
    {
      "constant": false,
      "inputs": [
        {
          "name": "_claimId",
          "type": "bytes32"
        }
      ],
      "name": "removeClaim",
      "outputs": [
        {
          "name": "success",
          "type": "bool"
        }
      ],
      "payable": false,
      "stateMutability": "nonpayable",
      "type": "function"
    }
  ],
  "bytecode": "0x6080604052600033604051808273ffffffffffffffffffffffffffffffffffffffff1673ffffffffffffffffffffffffffffffffffffffff166c0100000000000000000000000002815260140191505060405180910390209050806001600083600019166000191681526020019081526020016000206002018160001916905550600180600083600019166000191681526020019081526020016000206000018190555060018060008360001916600019168152602001908152602001600020600101819055506002600060018152602001908152602001600020819080600181540180825580915050906001820390600052602060002001600090919290919091509060001916905550600160008260001916600019168152602001908152602001600020600101546001600083600019166000191681526020019081526020016000206000015482600019167f480000bb1edad8ca1470381cc334b1917fbd51c6531f3a623ea8e0ec7e38a6e960405160405180910390a450611ef2806101896000396000f3006080604052600436106100d0576000357c0100000000000000000000000000000000000000000000000000000000900463ffffffff168063032c1a8a146100d557806312aaac701461011a5780631d38124014610175578063262b54f5146101d25780634eee424a14610254578063747442d31461029d5780637cdce8b6146102ee578063862642f51461034d5780639010f7261461039657806398c849b714610418578063b61d27f614610508578063c9100bcb146105a2578063d202158d1461064d578063def3c60e146106a0575b600080fd5b3480156100e157600080fd5b50610104600480360381019080803560001916906020019092919050505061070d565b6040518082815260200191505060405180910390f35b34801561012657600080fd5b506101496004803603810190808035600019169060200190929190505050610735565b604051808481526020018381526020018260001916600019168152602001935050505060405180910390f35b34801561018157600080fd5b506101b8600480360381019080803560001916906020019092919080359060200190929190803590602001909291905050506107a4565b604051808215151515815260200191505060405180910390f35b3480156101de57600080fd5b506101fd60048036038101908080359060200190929190505050610a99565b6040518080602001828103825283818151815260200191508051906020019060200280838360005b83811015610240578082015181840152602081019050610225565b505050509050019250505060405180910390f35b34801561026057600080fd5b506102836004803603810190808035600019169060200190929190505050610b08565b604051808215151515815260200191505060405180910390f35b3480156102a957600080fd5b506102d460048036038101908080359060200190929190803515159060200190929190505050610e72565b604051808215151515815260200191505060405180910390f35b3480156102fa57600080fd5b5061032f600480360381019080803573ffffffffffffffffffffffffffffffffffffffff169060200190929190505050611247565b60405180826000191660001916815260200191505060405180910390f35b34801561035957600080fd5b5061037c60048036038101908080356000191690602001909291905050506112a1565b604051808215151515815260200191505060405180910390f35b3480156103a257600080fd5b506103c16004803603810190808035906020019092919050505061140c565b6040518080602001828103825283818151815260200191508051906020019060200280838360005b838110156104045780820151818401526020810190506103e9565b505050509050019250505060405180910390f35b34801561042457600080fd5b506104ea6004803603810190808035906020019092919080359060200190929190803573ffffffffffffffffffffffffffffffffffffffff16906020019092919080356000191690602001909291908035600019169060200190929190803560ff1690602001909291908035600019169060200190929190803590602001908201803590602001908080601f016020809104026020016040519081016040528093929190818152602001838380828437820191505050505050919291929050505061147b565b60405180826000191660001916815260200191505060405180910390f35b61058c600480360381019080803573ffffffffffffffffffffffffffffffffffffffff16906020019092919080359060200190929190803590602001908201803590602001908080601f016020809104026020016040519081016040528093929190818152602001838380828437820191505050505050919291929050505061191e565b6040518082815260200191505060405180910390f35b3480156105ae57600080fd5b506105d16004803603810190808035600019169060200190929190505050611b49565b604051808673ffffffffffffffffffffffffffffffffffffffff1673ffffffffffffffffffffffffffffffffffffffff168152602001856000191660001916815260200184600019166000191681526020018360ff1660ff16815260200182600019166000191681526020019550505050505060405180910390f35b34801561065957600080fd5b50610686600480360381019080803560001916906020019092919080359060200190929190505050611c2c565b604051808215151515815260200191505060405180910390f35b3480156106ac57600080fd5b506106e1600480360381019080803573ffffffffffffffffffffffffffffffffffffffff169060200190929190505050611c95565b604051808481526020018381526020018260001916600019168152602001935050505060405180910390f35b6000600160008360001916600019168152602001908152602001600020600001549050919050565b60008060006001600085600019166000191681526020019081526020016000206000015460016000866000191660001916815260200190815260200160002060010154600160008760001916600019168152602001908152602001600020600201549250925092509193909250565b60008360001916600160008660001916600019168152602001908152602001600020600201546000191614151515610844576040517f08c379a00000000000000000000000000000000000000000000000000000000081526004018080602001828103825260138152602001807f6b657920616c726561647920657869737473210000000000000000000000000081525060200191505060405180910390fd5b3073ffffffffffffffffffffffffffffffffffffffff163373ffffffffffffffffffffffffffffffffffffffff1614151561096f576108d433604051808273ffffffffffffffffffffffffffffffffffffffff1673ffffffffffffffffffffffffffffffffffffffff166c0100000000000000000000000002815260140191505060405180910390206001611c2c565b151561096e576040517f08c379a00000000000000000000000000000000000000000000000000000000081526004018080602001828103825260258152602001807f53656e64657220646f6573206e6f742068617665204d616e6167656d656e742081526020017f6b6579732100000000000000000000000000000000000000000000000000000081525060400191505060405180910390fd5b5b8360016000866000191660001916815260200190815260200160002060020181600019169055508260016000866000191660001916815260200190815260200160002060000181905550816001600086600019166000191681526020019081526020016000206001018190555060026000848152602001908152602001600020849080600181540180825580915050906001820390600052602060002001600090919290919091509060001916905550600160008560001916600019168152602001908152602001600020600101546001600086600019166000191681526020019081526020016000206000015485600019167f480000bb1edad8ca1470381cc334b1917fbd51c6531f3a623ea8e0ec7e38a6e960405160405180910390a4600190509392505050565b606060056000838152602001908152602001600020805480602002602001604051908101604052809291908181526020018280548015610afc57602002820191906000526020600020905b81546000191681526020019060010190808311610ae4575b50505050509050919050565b60003073ffffffffffffffffffffffffffffffffffffffff163373ffffffffffffffffffffffffffffffffffffffff16141515610c3557610b9a33604051808273ffffffffffffffffffffffffffffffffffffffff1673ffffffffffffffffffffffffffffffffffffffff166c0100000000000000000000000002815260140191505060405180910390206001611c2c565b1515610c34576040517f08c379a00000000000000000000000000000000000000000000000000000000081526004018080602001828103825260238152602001807f53656e64657220646f6573206e6f742068617665206d616e6167656d656e742081526020017f6b6579000000000000000000000000000000000000000000000000000000000081525060400191505060405180910390fd5b5b60046000836000191660001916815260200190815260200160002060020160009054906101000a900473ffffffffffffffffffffffffffffffffffffffff1673ffffffffffffffffffffffffffffffffffffffff166004600084600019166000191681526020019081526020016000206000015483600019167f8da09eb387d39e701f1ab5e2104d65ccdab835344bcd86319674521cb76a211d600460008760001916600019168152602001908152602001600020600101546004600088600019166000191681526020019081526020016000206006015460046000896000191660001916815260200190815260200160002060070160405180848152602001836000191660001916815260200180602001828103825283818154600181600116156101000203166002900481526020019150805460018160011615610100020316600290048015610dc85780601f10610d9d57610100808354040283529160200191610dc8565b820191906000526020600020905b815481529060010190602001808311610dab57829003601f168201915b505094505050505060405180910390a460046000836000191660001916815260200190815260200160002060008082016000905560018201600090556002820160006101000a81549073ffffffffffffffffffffffffffffffffffffffff0219169055600382016000905560048201600090556005820160006101000a81549060ff02191690556006820160009055600782016000610e679190611d59565b505060019050919050565b600080610ed033604051808273ffffffffffffffffffffffffffffffffffffffff1673ffffffffffffffffffffffffffffffffffffffff166c0100000000000000000000000002815260140191505060405180910390206002611c2c565b1515610f44576040517f08c379a00000000000000000000000000000000000000000000000000000000081526004018080602001828103825260208152602001807f53656e64657220646f6573206e6f74206861766520616374696f6e206b65792181525060200191505060405180910390fd5b837fb3932da477fe5d6c8ff2eafef050c0f3a1af18fc07121001482600f36f3715d884604051808215151515815260200191505060405180910390a260011515831515141561120c5760016003600086815260200190815260200160002060030160006101000a81548160ff0219169083151502179055506003600085815260200190815260200160002060000160009054906101000a900473ffffffffffffffffffffffffffffffffffffffff1690508073ffffffffffffffffffffffffffffffffffffffff16630121b93f60036000878152602001908152602001600020600101546040518263ffffffff167c010000000000000000000000000000000000000000000000000000000002815260040180828152602001915050600060405180830381600087803b15801561107a57600080fd5b505af115801561108e573d6000803e3d6000fd5b5050505081156112035760016003600086815260200190815260200160002060030160016101000a81548160ff02191690831515021790555060036000858152602001908152602001600020600101546003600086815260200190815260200160002060000160009054906101000a900473ffffffffffffffffffffffffffffffffffffffff1673ffffffffffffffffffffffffffffffffffffffff16857f1f920dbda597d7bf95035464170fa58d0a4b57f13a1c315ace6793b9f63688b86003600089815260200190815260200160002060020160405180806020018281038252838181546001816001161561010002031660029004815260200191508054600181600116156101000203166002900480156111ec5780601f106111c1576101008083540402835291602001916111ec565b820191906000526020600020905b8154815290600101906020018083116111cf57829003601f168201915b50509250505060405180910390a460019150611240565b60009150611240565b60006003600086815260200190815260200160002060030160006101000a81548160ff021916908315150217905550600191505b5092915050565b600081604051808273ffffffffffffffffffffffffffffffffffffffff1673ffffffffffffffffffffffffffffffffffffffff166c0100000000000000000000000002815260140191505060405180910390209050919050565b600081600019166001600084600019166000191681526020019081526020016000206002015460001916141515611340576040517f08c379a000000000000000000000000000000000000000000000000000000000815260040180806020018281038252600b8152602001807f4e6f2073756368206b657900000000000000000000000000000000000000000081525060200191505060405180910390fd5b600160008360001916600019168152602001908152602001600020600101546001600084600019166000191681526020019081526020016000206000015460016000856000191660001916815260200190815260200160002060020154600019167f585a4aef50f8267a92b32412b331b20f7f8b96f2245b253b9cc50dcc621d339760405160405180910390a460016000836000191660001916815260200190815260200160002060008082016000905560018201600090556002820160009055505060019050919050565b60606002600083815260200190815260200160002080548060200260200160405190810160405280929190818152602001828054801561146f57602002820191906000526020600020905b81546000191681526020019060010190808311611457575b50505050509050919050565b600080878a604051808373ffffffffffffffffffffffffffffffffffffffff1673ffffffffffffffffffffffffffffffffffffffff166c0100000000000000000000000002815260140182815260200192505050604051809103902090503073ffffffffffffffffffffffffffffffffffffffff163373ffffffffffffffffffffffffffffffffffffffff161415156116045761156933604051808273ffffffffffffffffffffffffffffffffffffffff1673ffffffffffffffffffffffffffffffffffffffff166c0100000000000000000000000002815260140191505060405180910390206003611c2c565b1515611603576040517f08c379a00000000000000000000000000000000000000000000000000000000081526004018080602001828103825260248152602001807f53656e64657220646f6573206e6f7420686176652074686520636c61696d206b81526020017f657973210000000000000000000000000000000000000000000000000000000081525060400191505060405180910390fd5b5b8773ffffffffffffffffffffffffffffffffffffffff1660046000836000191660001916815260200190815260200160002060020160009054906101000a900473ffffffffffffffffffffffffffffffffffffffff1673ffffffffffffffffffffffffffffffffffffffff161415156116bb57600560008b81526020019081526020016000208190806001815401808255809150509060018203906000526020600020016000909192909190915090600019169055505b896004600083600019166000191681526020019081526020016000206000018190555088600460008360001916600019168152602001908152602001600020600101819055508760046000836000191660001916815260200190815260200160002060020160006101000a81548173ffffffffffffffffffffffffffffffffffffffff021916908373ffffffffffffffffffffffffffffffffffffffff1602179055508660046000836000191660001916815260200190815260200160002060030181600019169055508560046000836000191660001916815260200190815260200160002060040181600019169055508460046000836000191660001916815260200190815260200160002060050160006101000a81548160ff021916908360ff16021790555083600460008360001916600019168152602001908152602001600020600601816000191690555082600460008360001916600019168152602001908152602001600020600701908051906020019061183c929190611da1565b508773ffffffffffffffffffffffffffffffffffffffff168a82600019167f5f6678570df9eca02da33f73e11482d1cda813c9adb88ab1741a5985a85d787c8c888860405180848152602001836000191660001916815260200180602001828103825283818151815260200191508051906020019080838360005b838110156118d25780820151818401526020810190506118b7565b50505050905090810190601f1680156118ff5780820380516001836020036101000a031916815260200191505b5094505050505060405180910390a48091505098975050505050505050565b6000600360008054815260200190815260200160002060030160019054906101000a900460ff161515156119ba576040517f08c379a00000000000000000000000000000000000000000000000000000000081526004018080602001828103825260108152602001807f416c72656164792065786563757465640000000000000000000000000000000081525060200191505060405180910390fd5b83600360008054815260200190815260200160002060000160006101000a81548173ffffffffffffffffffffffffffffffffffffffff021916908373ffffffffffffffffffffffffffffffffffffffff160217905550826003600080548152602001908152602001600020600101819055508160036000805481526020019081526020016000206002019080519060200190611a57929190611e21565b50611ab333604051808273ffffffffffffffffffffffffffffffffffffffff1673ffffffffffffffffffffffffffffffffffffffff166c0100000000000000000000000002815260140191505060405180910390206001611c2c565b80611b155750611b1433604051808273ffffffffffffffffffffffffffffffffffffffff1673ffffffffffffffffffffffffffffffffffffffff166c0100000000000000000000000002815260140191505060405180910390206002611c2c565b5b15611b2957611b276000546001610e72565b505b600080815480929190600101919050555060016000540390509392505050565b600080600080600060046000876000191660001916815260200190815260200160002060020160009054906101000a900473ffffffffffffffffffffffffffffffffffffffff166004600088600019166000191681526020019081526020016000206003015460046000896000191660001916815260200190815260200160002060040154600460008a6000191660001916815260200190815260200160002060050160009054906101000a900460ff16600460008b60001916600019168152602001908152602001600020600601549450945094509450945091939590929450565b600080600060010260016000866000191660001916815260200190815260200160002060020154600019161415611c665760009150611c8e565b8260016000866000191660001916815260200190815260200160002060000154111590508091505b5092915050565b60008060008084604051808273ffffffffffffffffffffffffffffffffffffffff1673ffffffffffffffffffffffffffffffffffffffff166c0100000000000000000000000002815260140191505060405180910390209050600160008260001916600019168152602001908152602001600020600001546001600083600019166000191681526020019081526020016000206001015460016000846000191660001916815260200190815260200160002060020154935093509350509193909250565b50805460018160011615610100020316600290046000825580601f10611d7f5750611d9e565b601f016020900490600052602060002090810190611d9d9190611ea1565b5b50565b828054600181600116156101000203166002900490600052602060002090601f016020900481019282601f10611de257805160ff1916838001178555611e10565b82800160010185558215611e10579182015b82811115611e0f578251825591602001919060010190611df4565b5b509050611e1d9190611ea1565b5090565b828054600181600116156101000203166002900490600052602060002090601f016020900481019282601f10611e6257805160ff1916838001178555611e90565b82800160010185558215611e90579182015b82811115611e8f578251825591602001919060010190611e74565b5b509050611e9d9190611ea1565b5090565b611ec391905b80821115611ebf576000816000905550600101611ea7565b5090565b905600a165627a7a7230582021afb533cc1d2749775fd0c506ccc0dcbe633591e78e11e01d9a1b7e9ab8cfea0029",
  "source": "pragma solidity ^0.4.25;\n\nimport './ERC735.sol';\nimport './KeyHolder.sol';\n\ncontract ClaimHolder is ERC735,KeyHolder{\n\n  mapping(bytes32 => Claim) claims;\n  mapping(uint256 => bytes32[]) claimsByType;\n\n  function getClaim(bytes32 _claimId)\n  public constant returns( address issuer, bytes32 r,bytes32 s,uint8 v, bytes32 data){\n      return (claims[_claimId].issuer,\n      claims[_claimId].r,claims[_claimId].s,claims[_claimId].v,claims[_claimId].data);\n  }\n\n  function getClaimIdsByType(uint256 _claimType) public constant returns(bytes32[] claimIds){\n      return claimsByType[_claimType];\n  }\n\n\n  function addClaim(uint256 _claimType, uint256 _scheme, address _issuer, bytes32 r,bytes32 s,uint8 v, bytes32 _data, string _uri)\n  public returns (bytes32 claimRequestId){\n      bytes32 _claimId=keccak256(_issuer,_claimType);\n      if(msg.sender!=address(this)){\n        require(keyHasPurpose(keccak256(msg.sender),3),\"Sender does not have the claim keys!\");\n      }\n      if(claims[_claimId].issuer!=_issuer){\n        claimsByType[_claimType].push(_claimId);\n      }\n      claims[_claimId].claimType = _claimType;\n      claims[_claimId].scheme = _scheme;\n      claims[_claimId].issuer = _issuer;\n      claims[_claimId].r=r;\n      claims[_claimId].s=s;\n      claims[_claimId].v=v;\n      claims[_claimId].data = _data;\n      claims[_claimId].uri = _uri;\n\n      emit ClaimAdded(\n          _claimId,\n          _claimType,\n          _scheme,\n          _issuer,\n          _data,\n          _uri\n      );\n\n      return _claimId;\n\n  }\n\n\n  function removeClaim(bytes32 _claimId) public returns (bool success){\n    if (msg.sender != address(this)) {\n      require(keyHasPurpose(keccak256(msg.sender), 1), \"Sender does not have management key\");\n    }\n\n\n    emit ClaimRemoved(\n        _claimId,\n        claims[_claimId].claimType,\n        claims[_claimId].scheme,\n        claims[_claimId].issuer,\n        claims[_claimId].data,\n        claims[_claimId].uri\n    );\n\n    delete claims[_claimId];\n    return true;\n  }\n\n}\n",
  "sourcePath": "/home/magneto/ethereum/ERC725/contracts/ClaimHolder.sol",
  "compiler": {
    "name": "solc",
    "version": "0.4.25+commit.59dbf8f1.Emscripten.clang"
  },
  "schemaVersion": "2.0.2",
  "updatedAt": "2019-04-18T19:21:47.872Z"
}