{
  "contractName": "Election",
  "abi": [
    {
      "constant": true,
      "inputs": [],
      "name": "candidatesCount",
      "outputs": [
        {
          "name": "",
          "type": "uint256"
        }
      ],
      "payable": false,
      "stateMutability": "view",
      "type": "function"
    },
    {
      "constant": true,
      "inputs": [
        {
          "name": "",
          "type": "uint256"
        }
      ],
      "name": "candidates",
      "outputs": [
        {
          "name": "id",
          "type": "uint256"
        },
        {
          "name": "name",
          "type": "string"
        },
        {
          "name": "voteCount",
          "type": "uint256"
        }
      ],
      "payable": false,
      "stateMutability": "view",
      "type": "function"
    },
    {
      "constant": true,
      "inputs": [],
      "name": "trustedClaimHolder",
      "outputs": [
        {
          "name": "",
          "type": "address"
        }
      ],
      "payable": false,
      "stateMutability": "view",
      "type": "function"
    },
    {
      "constant": true,
      "inputs": [],
      "name": "trust",
      "outputs": [
        {
          "name": "",
          "type": "address"
        }
      ],
      "payable": false,
      "stateMutability": "view",
      "type": "function"
    },
    {
      "constant": true,
      "inputs": [
        {
          "name": "",
          "type": "address"
        }
      ],
      "name": "voters",
      "outputs": [
        {
          "name": "",
          "type": "bool"
        }
      ],
      "payable": false,
      "stateMutability": "view",
      "type": "function"
    },
    {
      "inputs": [
        {
          "name": "_trustedClaimHolder",
          "type": "address"
        }
      ],
      "payable": false,
      "stateMutability": "nonpayable",
      "type": "constructor"
    },
    {
      "anonymous": false,
      "inputs": [
        {
          "indexed": false,
          "name": "_identity",
          "type": "address"
        },
        {
          "indexed": false,
          "name": "claimType",
          "type": "uint256"
        }
      ],
      "name": "ClaimValid",
      "type": "event"
    },
    {
      "anonymous": false,
      "inputs": [
        {
          "indexed": false,
          "name": "_identity",
          "type": "address"
        },
        {
          "indexed": false,
          "name": "claimType",
          "type": "uint256"
        }
      ],
      "name": "ClaimInvalid",
      "type": "event"
    },
    {
      "anonymous": false,
      "inputs": [
        {
          "indexed": true,
          "name": "_candidateId",
          "type": "uint256"
        }
      ],
      "name": "votedEvent",
      "type": "event"
    },
    {
      "constant": true,
      "inputs": [
        {
          "name": "_id",
          "type": "uint256"
        }
      ],
      "name": "getVoteCount",
      "outputs": [
        {
          "name": "noOfVotes",
          "type": "uint256"
        }
      ],
      "payable": false,
      "stateMutability": "view",
      "type": "function"
    },
    {
      "constant": false,
      "inputs": [
        {
          "name": "_candidateId",
          "type": "uint256"
        }
      ],
      "name": "vote",
      "outputs": [],
      "payable": false,
      "stateMutability": "nonpayable",
      "type": "function"
    },
    {
      "constant": true,
      "inputs": [
        {
          "name": "_identity",
          "type": "address"
        },
        {
          "name": "claimType",
          "type": "uint256"
        }
      ],
      "name": "claimIsValid",
      "outputs": [
        {
          "name": "claimValid",
          "type": "bool"
        }
      ],
      "payable": false,
      "stateMutability": "view",
      "type": "function"
    },
    {
      "constant": true,
      "inputs": [
        {
          "name": "r",
          "type": "bytes32"
        },
        {
          "name": "s",
          "type": "bytes32"
        },
        {
          "name": "v",
          "type": "uint8"
        },
        {
          "name": "dataHash",
          "type": "bytes32"
        }
      ],
      "name": "getRecoveredAddress",
      "outputs": [
        {
          "name": "addr",
          "type": "address"
        }
      ],
      "payable": false,
      "stateMutability": "view",
      "type": "function"
    }
  ],
  "bytecode": "0x608060405234801561001057600080fd5b50604051602080610cd8833981018060405281019080805190602001909291905050506100806040805190810160405280600b81526020017f43616e6469646174652031000000000000000000000000000000000000000000815250610154640100000000026401000000009004565b6100cd6040805190810160405280600b81526020017f43616e6469646174652032000000000000000000000000000000000000000000815250610154640100000000026401000000009004565b80600160006101000a81548173ffffffffffffffffffffffffffffffffffffffff021916908373ffffffffffffffffffffffffffffffffffffffff160217905550806000806101000a81548173ffffffffffffffffffffffffffffffffffffffff021916908373ffffffffffffffffffffffffffffffffffffffff16021790555050610276565b600460008154809291906001019190505550606060405190810160405280600454815260200182815260200160008152506003600060045481526020019081526020016000206000820151816000015560208201518160010190805190602001906101c09291906101d1565b506040820151816002015590505050565b828054600181600116156101000203166002900490600052602060002090601f016020900481019282601f1061021257805160ff1916838001178555610240565b82800160010185558215610240579182015b8281111561023f578251825591602001919060010190610224565b5b50905061024d9190610251565b5090565b61027391905b8082111561026f576000816000905550600101610257565b5090565b90565b610a53806102856000396000f300608060405260043610610099576000357c0100000000000000000000000000000000000000000000000000000000900463ffffffff1680630121b93f1461009e5780632d35a8a2146100cb5780633477ee2e146100f657806336938354146101aa5780636f9fdd66146102015780639fecd55414610258578063a3ec138d146102bd578063b2c2f2e814610318578063b42f078214610359575b600080fd5b3480156100aa57600080fd5b506100c9600480360381019080803590602001909291905050506103f3565b005b3480156100d757600080fd5b506100e061052d565b6040518082815260200191505060405180910390f35b34801561010257600080fd5b5061012160048036038101908080359060200190929190505050610533565b6040518084815260200180602001838152602001828103825284818151815260200191508051906020019080838360005b8381101561016d578082015181840152602081019050610152565b50505050905090810190601f16801561019a5780820380516001836020036101000a031916815260200191505b5094505050505060405180910390f35b3480156101b657600080fd5b506101bf6105f5565b604051808273ffffffffffffffffffffffffffffffffffffffff1673ffffffffffffffffffffffffffffffffffffffff16815260200191505060405180910390f35b34801561020d57600080fd5b5061021661061a565b604051808273ffffffffffffffffffffffffffffffffffffffff1673ffffffffffffffffffffffffffffffffffffffff16815260200191505060405180910390f35b34801561026457600080fd5b506102a3600480360381019080803573ffffffffffffffffffffffffffffffffffffffff16906020019092919080359060200190929190505050610640565b604051808215151515815260200191505060405180910390f35b3480156102c957600080fd5b506102fe600480360381019080803573ffffffffffffffffffffffffffffffffffffffff16906020019092919050505061090a565b604051808215151515815260200191505060405180910390f35b34801561032457600080fd5b506103436004803603810190808035906020019092919050505061092a565b6040518082815260200191505060405180910390f35b34801561036557600080fd5b506103b160048036038101908080356000191690602001909291908035600019169060200190929190803560ff169060200190929190803560001916906020019092919050505061094a565b604051808273ffffffffffffffffffffffffffffffffffffffff1673ffffffffffffffffffffffffffffffffffffffff16815260200191505060405180910390f35b600260003373ffffffffffffffffffffffffffffffffffffffff1673ffffffffffffffffffffffffffffffffffffffff16815260200190815260200160002060009054906101000a900460ff1615151561044c57600080fd5b610457336007610640565b151561046257600080fd5b60008111801561047457506004548111155b151561047f57600080fd5b6001600260003373ffffffffffffffffffffffffffffffffffffffff1673ffffffffffffffffffffffffffffffffffffffff16815260200190815260200160002060006101000a81548160ff0219169083151502179055506003600082815260200190815260200160002060020160008154809291906001019190505550807ffff3c900d938d21d0990d786e819f29b8d05c1ef587b462b939609625b684b1660405160405180910390a250565b60045481565b6003602052806000526040600020600091509050806000015490806001018054600181600116156101000203166002900480601f0160208091040260200160405190810160405280929190818152602001828054600181600116156101000203166002900480156105e55780601f106105ba576101008083540402835291602001916105e5565b820191906000526020600020905b8154815290600101906020018083116105c857829003601f168201915b5050505050908060020154905083565b6000809054906101000a900473ffffffffffffffffffffffffffffffffffffffff1681565b600160009054906101000a900473ffffffffffffffffffffffffffffffffffffffff1681565b6000806000806000806000806000808b93506000809054906101000a900473ffffffffffffffffffffffffffffffffffffffff168b604051808373ffffffffffffffffffffffffffffffffffffffff1673ffffffffffffffffffffffffffffffffffffffff166c0100000000000000000000000002815260140182815260200192505050604051809103902092508373ffffffffffffffffffffffffffffffffffffffff1663c9100bcb846040518263ffffffff167c010000000000000000000000000000000000000000000000000000000002815260040180826000191660001916815260200191505060a060405180830381600087803b15801561074557600080fd5b505af1158015610759573d6000803e3d6000fd5b505050506040513d60a081101561076f57600080fd5b810190808051906020019092919080519060200190929190805190602001909291908051906020019092919080519060200190929190505050809950819a50829b50839c50849d5050505050506107c88888888861094a565b915081604051808273ffffffffffffffffffffffffffffffffffffffff1673ffffffffffffffffffffffffffffffffffffffff166c01000000000000000000000000028152601401915050604051809103902090506000809054906101000a900473ffffffffffffffffffffffffffffffffffffffff1673ffffffffffffffffffffffffffffffffffffffff1663d202158d8260036040518363ffffffff167c010000000000000000000000000000000000000000000000000000000002815260040180836000191660001916815260200182815260200192505050602060405180830381600087803b1580156108be57600080fd5b505af11580156108d2573d6000803e3d6000fd5b505050506040513d60208110156108e857600080fd5b8101908080519060200190929190505050995050505050505050505092915050565b60026020528060005260406000206000915054906101000a900460ff1681565b600060036000838152602001908152602001600020600201549050919050565b60008060008360405180807f19457468657265756d205369676e6564204d6573736167653a0a333200000000815250601c01826000191660001916815260200191505060405180910390209150600182868989604051600081526020016040526040518085600019166000191681526020018460ff1660ff1681526020018360001916600019168152602001826000191660001916815260200194505050505060206040516020810390808403906000865af1158015610a0e573d6000803e3d6000fd5b50505060206040510351905080925050509493505050505600a165627a7a72305820f0a5a589ce477079e9ebbe28c919d4f1a5b4d3bdfdfe94d68e8a9f71a486dd750029",
  "source": "pragma solidity ^0.4.25;\n\nimport './ClaimHolder.sol';\n\ncontract Election {\n\n\t  event ClaimValid(ClaimHolder _identity, uint256 claimType);\n  event ClaimInvalid(ClaimHolder _identity, uint256 claimType);\n\n  ClaimHolder public trustedClaimHolder;\n  address public trust;\n    // Model a Candidate\n    struct Candidate {\n        uint id;\n        string name;\n        uint voteCount;\n    }\n\n    // Store accounts that have voted\n    mapping(address => bool) public voters;\n    // Store Candidates\n    // Fetch Candidate\n    mapping(uint => Candidate) public candidates;\n    // Store Candidates Count\n    uint public candidatesCount;\n\n    // voted event\n    event votedEvent (\n        uint indexed _candidateId\n    );\n\n    constructor (address _trustedClaimHolder) public {\n        addCandidate(\"Candidate 1\");\n        addCandidate(\"Candidate 2\");\n        trust=_trustedClaimHolder;\n    \ttrustedClaimHolder = ClaimHolder(_trustedClaimHolder);\n    }\n\n\t\tfunction getVoteCount(uint256 _id) public view returns(uint256 noOfVotes){\n\t\t\treturn candidates[_id].voteCount;\n\t\t}\n\n    function addCandidate (string _name) private {\n        candidatesCount ++;\n        candidates[candidatesCount] = Candidate(candidatesCount, _name, 0);\n    }\n\n    function vote (uint256 _candidateId) public {\n        // require that they haven't voted before\n        require(!voters[msg.sender]);\n\t\t\t\trequire(claimIsValid(msg.sender,7));\n        // require a valid candidate\n        require(_candidateId > 0 && _candidateId <= candidatesCount);\n\n        // record that voter has voted\n        voters[msg.sender] = true;\n\n        // update candidate vote Count\n        candidates[_candidateId].voteCount ++;\n\n        // trigger voted event\n        emit votedEvent(_candidateId);\n    }\n\n      function claimIsValid(address _identity, uint256 claimType)\n    public\n    constant\n    returns (bool claimValid)\n\t\t  {\n\t\t    address issuer;\n\t\t    bytes32 r;\n\t\t    bytes32 s;\n\t\t    uint8 v;\n\t\t    bytes32  data;\n\t\t    ClaimHolder  iden=ClaimHolder(_identity);\n\t\t    // Construct claimId (identifier + claim type)\n\t\t    bytes32 claimId = keccak256(trustedClaimHolder, claimType);\n\n\t\t    // Fetch claim from user\n\t\t    ( issuer, r,s,v, data) = iden.getClaim(claimId);\n\n\n\t\t    // Recover address of data signer\n\t\t    address recovered = getRecoveredAddress(r,s,v, data);\n\n\t\t    // Take hash of recovered address\n\t\t    bytes32 hashedAddr = keccak256(recovered);\n\n\t\t    // Does the trusted identifier have they key which signed the user's claim?\n\t\t    return trustedClaimHolder.keyHasPurpose(hashedAddr, 3);\n\t\t  }\n\n  function getRecoveredAddress(bytes32 r,bytes32 s,uint8 v, bytes32 dataHash)\n      public\n      view\n      returns (address addr)\n\t  {\n\n\t      bytes32 Hash = keccak256(\"\\x19Ethereum Signed Message:\\n32\", dataHash);\n\t      address recoveredAddress = ecrecover(Hash, v, r, s);\n\n\t      return (recoveredAddress);\n\t  }\n\n\n}\n",
  "sourcePath": "/home/magneto/ethereum/ERC725/contracts/Election.sol",
  "compiler": {
    "name": "solc",
    "version": "0.4.25+commit.59dbf8f1.Emscripten.clang"
  },
  "schemaVersion": "2.0.2",
  "updatedAt": "2019-04-18T19:21:47.863Z"
}