{
  "contractName": "KeyHolder",
  "abi": [
    {
      "inputs": [],
      "payable": false,
      "stateMutability": "nonpayable",
      "type": "constructor"
    },
    {
      "anonymous": false,
      "inputs": [
        {
          "indexed": true,
          "name": "key",
          "type": "bytes32"
        },
        {
          "indexed": true,
          "name": "purpose",
          "type": "uint256"
        },
        {
          "indexed": true,
          "name": "keyType",
          "type": "uint256"
        }
      ],
      "name": "KeyAdded",
      "type": "event"
    },
    {
      "anonymous": false,
      "inputs": [
        {
          "indexed": true,
          "name": "key",
          "type": "bytes32"
        },
        {
          "indexed": true,
          "name": "purpose",
          "type": "uint256"
        },
        {
          "indexed": true,
          "name": "keyType",
          "type": "uint256"
        }
      ],
      "name": "KeyRemoved",
      "type": "event"
    },
    {
      "anonymous": false,
      "inputs": [
        {
          "indexed": true,
          "name": "executionId",
          "type": "uint256"
        },
        {
          "indexed": true,
          "name": "to",
          "type": "address"
        },
        {
          "indexed": true,
          "name": "value",
          "type": "uint256"
        },
        {
          "indexed": false,
          "name": "data",
          "type": "bytes"
        }
      ],
      "name": "ExecutionRequested",
      "type": "event"
    },
    {
      "anonymous": false,
      "inputs": [
        {
          "indexed": true,
          "name": "executionId",
          "type": "uint256"
        },
        {
          "indexed": true,
          "name": "to",
          "type": "address"
        },
        {
          "indexed": true,
          "name": "value",
          "type": "uint256"
        },
        {
          "indexed": false,
          "name": "data",
          "type": "bytes"
        }
      ],
      "name": "Executed",
      "type": "event"
    },
    {
      "anonymous": false,
      "inputs": [
        {
          "indexed": true,
          "name": "executionId",
          "type": "uint256"
        },
        {
          "indexed": false,
          "name": "approved",
          "type": "bool"
        }
      ],
      "name": "Approved",
      "type": "event"
    },
    {
      "constant": true,
      "inputs": [
        {
          "name": "_key",
          "type": "bytes32"
        }
      ],
      "name": "getKey",
      "outputs": [
        {
          "name": "purpose",
          "type": "uint256"
        },
        {
          "name": "keyType",
          "type": "uint256"
        },
        {
          "name": "key",
          "type": "bytes32"
        }
      ],
      "payable": false,
      "stateMutability": "view",
      "type": "function"
    },
    {
      "constant": true,
      "inputs": [
        {
          "name": "_key",
          "type": "bytes32"
        }
      ],
      "name": "getKeyPurpose",
      "outputs": [
        {
          "name": "purpose",
          "type": "uint256"
        }
      ],
      "payable": false,
      "stateMutability": "view",
      "type": "function"
    },
    {
      "constant": true,
      "inputs": [
        {
          "name": "_purpose",
          "type": "uint256"
        }
      ],
      "name": "getKeysByPurpose",
      "outputs": [
        {
          "name": "_keys",
          "type": "bytes32[]"
        }
      ],
      "payable": false,
      "stateMutability": "view",
      "type": "function"
    },
    {
      "constant": false,
      "inputs": [
        {
          "name": "_key",
          "type": "bytes32"
        },
        {
          "name": "_purpose",
          "type": "uint256"
        },
        {
          "name": "_keyType",
          "type": "uint256"
        }
      ],
      "name": "addKey",
      "outputs": [
        {
          "name": "success",
          "type": "bool"
        }
      ],
      "payable": false,
      "stateMutability": "nonpayable",
      "type": "function"
    },
    {
      "constant": true,
      "inputs": [
        {
          "name": "_key",
          "type": "bytes32"
        },
        {
          "name": "_purpose",
          "type": "uint256"
        }
      ],
      "name": "keyHasPurpose",
      "outputs": [
        {
          "name": "result",
          "type": "bool"
        }
      ],
      "payable": false,
      "stateMutability": "view",
      "type": "function"
    },
    {
      "constant": false,
      "inputs": [
        {
          "name": "_id",
          "type": "uint256"
        },
        {
          "name": "_approve",
          "type": "bool"
        }
      ],
      "name": "approve",
      "outputs": [
        {
          "name": "success",
          "type": "bool"
        }
      ],
      "payable": false,
      "stateMutability": "nonpayable",
      "type": "function"
    },
    {
      "constant": false,
      "inputs": [
        {
          "name": "_to",
          "type": "address"
        },
        {
          "name": "_value",
          "type": "uint256"
        },
        {
          "name": "_data",
          "type": "bytes"
        }
      ],
      "name": "execute",
      "outputs": [
        {
          "name": "executionId",
          "type": "uint256"
        }
      ],
      "payable": true,
      "stateMutability": "payable",
      "type": "function"
    },
    {
      "constant": false,
      "inputs": [
        {
          "name": "_key",
          "type": "bytes32"
        }
      ],
      "name": "removeKey",
      "outputs": [
        {
          "name": "success",
          "type": "bool"
        }
      ],
      "payable": false,
      "stateMutability": "nonpayable",
      "type": "function"
    },
    {
      "constant": true,
      "inputs": [
        {
          "name": "_addr",
          "type": "address"
        }
      ],
      "name": "getKeyFromAddress",
      "outputs": [
        {
          "name": "purpose",
          "type": "uint256"
        },
        {
          "name": "keyType",
          "type": "uint256"
        },
        {
          "name": "key",
          "type": "bytes32"
        }
      ],
      "payable": false,
      "stateMutability": "view",
      "type": "function"
    },
    {
      "constant": true,
      "inputs": [
        {
          "name": "_addr",
          "type": "address"
        }
      ],
      "name": "getHashed",
      "outputs": [
        {
          "name": "myval",
          "type": "bytes32"
        }
      ],
      "payable": false,
      "stateMutability": "view",
      "type": "function"
    }
  ],
  "bytecode": "0x608060405234801561001057600080fd5b50600033604051808273ffffffffffffffffffffffffffffffffffffffff1673ffffffffffffffffffffffffffffffffffffffff166c0100000000000000000000000002815260140191505060405180910390209050806001600083600019166000191681526020019081526020016000206002018160001916905550600180600083600019166000191681526020019081526020016000206000018190555060018060008360001916600019168152602001908152602001600020600101819055506002600060018152602001908152602001600020819080600181540180825580915050906001820390600052602060002001600090919290919091509060001916905550600160008260001916600019168152602001908152602001600020600101546001600083600019166000191681526020019081526020016000206000015482600019167f480000bb1edad8ca1470381cc334b1917fbd51c6531f3a623ea8e0ec7e38a6e960405160405180910390a4506112cf806101966000396000f3006080604052600436106100a4576000357c0100000000000000000000000000000000000000000000000000000000900463ffffffff168063032c1a8a146100a957806312aaac70146100ee5780631d38124014610149578063747442d3146101a65780637cdce8b6146101f7578063862642f5146102565780639010f7261461029f578063b61d27f614610321578063d202158d146103bb578063def3c60e1461040e575b600080fd5b3480156100b557600080fd5b506100d8600480360381019080803560001916906020019092919050505061047b565b6040518082815260200191505060405180910390f35b3480156100fa57600080fd5b5061011d60048036038101908080356000191690602001909291905050506104a3565b604051808481526020018381526020018260001916600019168152602001935050505060405180910390f35b34801561015557600080fd5b5061018c60048036038101908080356000191690602001909291908035906020019092919080359060200190929190505050610512565b604051808215151515815260200191505060405180910390f35b3480156101b257600080fd5b506101dd60048036038101908080359060200190929190803515159060200190929190505050610807565b604051808215151515815260200191505060405180910390f35b34801561020357600080fd5b50610238600480360381019080803573ffffffffffffffffffffffffffffffffffffffff169060200190929190505050610bbb565b60405180826000191660001916815260200191505060405180910390f35b34801561026257600080fd5b506102856004803603810190808035600019169060200190929190505050610c15565b604051808215151515815260200191505060405180910390f35b3480156102ab57600080fd5b506102ca60048036038101908080359060200190929190505050610d80565b6040518080602001828103825283818151815260200191508051906020019060200280838360005b8381101561030d5780820151818401526020810190506102f2565b505050509050019250505060405180910390f35b6103a5600480360381019080803573ffffffffffffffffffffffffffffffffffffffff16906020019092919080359060200190929190803590602001908201803590602001908080601f0160208091040260200160405190810160405280939291908181526020018383808284378201915050505050509192919290505050610def565b6040518082815260200191505060405180910390f35b3480156103c757600080fd5b506103f46004803603810190808035600019169060200190929190803590602001909291905050506110d1565b604051808215151515815260200191505060405180910390f35b34801561041a57600080fd5b5061044f600480360381019080803573ffffffffffffffffffffffffffffffffffffffff16906020019092919050505061113a565b604051808481526020018381526020018260001916600019168152602001935050505060405180910390f35b6000600160008360001916600019168152602001908152602001600020600001549050919050565b60008060006001600085600019166000191681526020019081526020016000206000015460016000866000191660001916815260200190815260200160002060010154600160008760001916600019168152602001908152602001600020600201549250925092509193909250565b600083600019166001600086600019166000191681526020019081526020016000206002015460001916141515156105b2576040517f08c379a00000000000000000000000000000000000000000000000000000000081526004018080602001828103825260138152602001807f6b657920616c726561647920657869737473210000000000000000000000000081525060200191505060405180910390fd5b3073ffffffffffffffffffffffffffffffffffffffff163373ffffffffffffffffffffffffffffffffffffffff161415156106dd5761064233604051808273ffffffffffffffffffffffffffffffffffffffff1673ffffffffffffffffffffffffffffffffffffffff166c01000000000000000000000000028152601401915050604051809103902060016110d1565b15156106dc576040517f08c379a00000000000000000000000000000000000000000000000000000000081526004018080602001828103825260258152602001807f53656e64657220646f6573206e6f742068617665204d616e6167656d656e742081526020017f6b6579732100000000000000000000000000000000000000000000000000000081525060400191505060405180910390fd5b5b8360016000866000191660001916815260200190815260200160002060020181600019169055508260016000866000191660001916815260200190815260200160002060000181905550816001600086600019166000191681526020019081526020016000206001018190555060026000848152602001908152602001600020849080600181540180825580915050906001820390600052602060002001600090919290919091509060001916905550600160008560001916600019168152602001908152602001600020600101546001600086600019166000191681526020019081526020016000206000015485600019167f480000bb1edad8ca1470381cc334b1917fbd51c6531f3a623ea8e0ec7e38a6e960405160405180910390a4600190509392505050565b60008061086533604051808273ffffffffffffffffffffffffffffffffffffffff1673ffffffffffffffffffffffffffffffffffffffff166c01000000000000000000000000028152601401915050604051809103902060026110d1565b15156108d9576040517f08c379a00000000000000000000000000000000000000000000000000000000081526004018080602001828103825260208152602001807f53656e64657220646f6573206e6f74206861766520616374696f6e206b65792181525060200191505060405180910390fd5b837fb3932da477fe5d6c8ff2eafef050c0f3a1af18fc07121001482600f36f3715d884604051808215151515815260200191505060405180910390a2600115158315151415610b805760016003600086815260200190815260200160002060030160006101000a81548160ff0219169083151502179055506003600085815260200190815260200160002060000160009054906101000a900473ffffffffffffffffffffffffffffffffffffffff1690508073ffffffffffffffffffffffffffffffffffffffff166399c8d1c06040518163ffffffff167c0100000000000000000000000000000000000000000000000000000000028152600401600060405180830381600087803b1580156109ee57600080fd5b505af1158015610a02573d6000803e3d6000fd5b505050508115610b775760016003600086815260200190815260200160002060030160016101000a81548160ff02191690831515021790555060036000858152602001908152602001600020600101546003600086815260200190815260200160002060000160009054906101000a900473ffffffffffffffffffffffffffffffffffffffff1673ffffffffffffffffffffffffffffffffffffffff16857f1f920dbda597d7bf95035464170fa58d0a4b57f13a1c315ace6793b9f63688b8600360008981526020019081526020016000206002016040518080602001828103825283818154600181600116156101000203166002900481526020019150805460018160011615610100020316600290048015610b605780601f10610b3557610100808354040283529160200191610b60565b820191906000526020600020905b815481529060010190602001808311610b4357829003601f168201915b50509250505060405180910390a460019150610bb4565b60009150610bb4565b60006003600086815260200190815260200160002060030160006101000a81548160ff021916908315150217905550600191505b5092915050565b600081604051808273ffffffffffffffffffffffffffffffffffffffff1673ffffffffffffffffffffffffffffffffffffffff166c0100000000000000000000000002815260140191505060405180910390209050919050565b600081600019166001600084600019166000191681526020019081526020016000206002015460001916141515610cb4576040517f08c379a000000000000000000000000000000000000000000000000000000000815260040180806020018281038252600b8152602001807f4e6f2073756368206b657900000000000000000000000000000000000000000081525060200191505060405180910390fd5b600160008360001916600019168152602001908152602001600020600101546001600084600019166000191681526020019081526020016000206000015460016000856000191660001916815260200190815260200160002060020154600019167f585a4aef50f8267a92b32412b331b20f7f8b96f2245b253b9cc50dcc621d339760405160405180910390a460016000836000191660001916815260200190815260200160002060008082016000905560018201600090556002820160009055505060019050919050565b606060026000838152602001908152602001600020805480602002602001604051908101604052809291908181526020018280548015610de357602002820191906000526020600020905b81546000191681526020019060010190808311610dcb575b50505050509050919050565b6000600360008054815260200190815260200160002060030160019054906101000a900460ff16151515610e8b576040517f08c379a00000000000000000000000000000000000000000000000000000000081526004018080602001828103825260108152602001807f416c72656164792065786563757465640000000000000000000000000000000081525060200191505060405180910390fd5b83600360008054815260200190815260200160002060000160006101000a81548173ffffffffffffffffffffffffffffffffffffffff021916908373ffffffffffffffffffffffffffffffffffffffff160217905550826003600080548152602001908152602001600020600101819055508160036000805481526020019081526020016000206002019080519060200190610f289291906111fe565b50828473ffffffffffffffffffffffffffffffffffffffff166000547f8afcfabcb00e47a53a8fc3e9f23ff47ee1926194bb1350dd007c50b412a6cee8856040518080602001828103825283818151815260200191508051906020019080838360005b83811015610fa6578082015181840152602081019050610f8b565b50505050905090810190601f168015610fd35780820380516001836020036101000a031916815260200191505b509250505060405180910390a461103b33604051808273ffffffffffffffffffffffffffffffffffffffff1673ffffffffffffffffffffffffffffffffffffffff166c01000000000000000000000000028152601401915050604051809103902060016110d1565b8061109d575061109c33604051808273ffffffffffffffffffffffffffffffffffffffff1673ffffffffffffffffffffffffffffffffffffffff166c01000000000000000000000000028152601401915050604051809103902060026110d1565b5b156110b1576110af6000546001610807565b505b600080815480929190600101919050555060016000540390509392505050565b60008060006001026001600086600019166000191681526020019081526020016000206002015460001916141561110b5760009150611133565b8260016000866000191660001916815260200190815260200160002060000154111590508091505b5092915050565b60008060008084604051808273ffffffffffffffffffffffffffffffffffffffff1673ffffffffffffffffffffffffffffffffffffffff166c0100000000000000000000000002815260140191505060405180910390209050600160008260001916600019168152602001908152602001600020600001546001600083600019166000191681526020019081526020016000206001015460016000846000191660001916815260200190815260200160002060020154935093509350509193909250565b828054600181600116156101000203166002900490600052602060002090601f016020900481019282601f1061123f57805160ff191683800117855561126d565b8280016001018555821561126d579182015b8281111561126c578251825591602001919060010190611251565b5b50905061127a919061127e565b5090565b6112a091905b8082111561129c576000816000905550600101611284565b5090565b905600a165627a7a723058201d5790c55289f2d0c2cb16a404bc1ed8e489133ceb0d6d13d35bcc801999d8f40029",
  "source": "pragma solidity ^0.4.25;\n\nimport './ERC725.sol';\nimport './testCalling.sol';\n\ncontract KeyHolder is ERC725{\n\n  uint256 executionNonce;\n\n  struct Execution{\n    address to;\n    uint256 value;\n    bytes data;\n    bool approved;\n    bool executed;\n  }\n\n  mapping(bytes32 => Key) keys;\n  mapping(uint256 => bytes32[]) keysByPurpose;\n  mapping(uint256 => Execution) executions;\n\n  constructor() public{\n    bytes32 _key=keccak256(msg.sender);\n    keys[_key].key=_key;\n    keys[_key].purpose=1;\n    keys[_key].keyType=1;\n    keysByPurpose[1].push(_key);\n    emit KeyAdded(_key,keys[_key].purpose,keys[_key].keyType);\n  }\n  function getKey(bytes32 _key) public constant returns(uint256 purpose, uint256 keyType, bytes32 key){\n    return (keys[_key].purpose,keys[_key].keyType,keys[_key].key);\n  }\n  function getKeyPurpose(bytes32 _key) public constant returns(uint256 purpose)\n  {\n    return keys[_key].purpose;\n  }\n  function getKeysByPurpose(uint256 _purpose) public constant returns(bytes32[] _keys){\n    return keysByPurpose[_purpose];\n  }\n  function addKey(bytes32 _key, uint256 _purpose, uint256 _keyType) public returns (bool success){\n          require(keys[_key].key!=_key,\"key already exists!\");\n\n          if(msg.sender!=address(this)){\n              require(keyHasPurpose(keccak256(msg.sender),uint256(1)),\"Sender does not have Management keys!\");\n          }\n\n          keys[_key].key=_key;\n          keys[_key].purpose=_purpose;\n          keys[_key].keyType=_keyType;\n          keysByPurpose[_purpose].push(_key);\n          emit KeyAdded(_key,keys[_key].purpose,keys[_key].keyType);\n          return true;\n  }\n  function keyHasPurpose(bytes32 _key, uint256 _purpose)\n      public\n      view\n      returns(bool result)\n  {\n      bool isThere;\n      if (keys[_key].key == 0) return false;\n      isThere = keys[_key].purpose <= _purpose;\n      return isThere;\n  }\n  function approve(uint256 _id, bool _approve)\n      public\n      returns (bool success)\n  {\n          require(keyHasPurpose(keccak256(msg.sender),uint256(2)),\"Sender does not have action key!\");\n          emit Approved(_id,_approve);\n\n          if (_approve == true) {\n              executions[_id].approved = true;\n              //Example : contractAddress.call(bytes4(keccak256(\"foobar(uint256,uint256)\")), val1, val2);\n              //success = executions[_id].to.call.value(executions[_id].value)(executions[_id].data, 0);\n              testCalling cont=testCalling(executions[_id].to);\n              cont.toBeCalled();//delegatecall(bytes4(keccak256(\"toBeCalled()\")));\n              if (success) {\n                  executions[_id].executed = true;\n                  emit Executed(\n                      _id,\n                      executions[_id].to,\n                      executions[_id].value,\n                      executions[_id].data\n                      );\n                  return true;\n              } else {\n                  /*emit ExecutionFailed(\n                      _id,\n                      executions[_id].to,\n                      executions[_id].value,\n                      executions[_id].data\n                  );*/\n                  return false;\n              }\n          } else {\n                  executions[_id].approved = false;\n                  }\n          return true;\n  }\n\n  function execute(address _to, uint256 _value, bytes _data)\n      public\n      payable\n      returns (uint256 executionId)\n  {\n    require(!executions[executionNonce].executed, \"Already executed\");\n    executions[executionNonce].to = _to;\n    executions[executionNonce].value = _value;\n    executions[executionNonce].data = _data;\n\n    emit ExecutionRequested(executionNonce, _to, _value, _data);\n\n    if (keyHasPurpose(keccak256(msg.sender),1) || keyHasPurpose(keccak256(msg.sender),2)) {\n        approve(executionNonce, true);\n    }\n\n    executionNonce++;\n    return executionNonce-1;\n  }\n\n  function removeKey(bytes32 _key)\n      public\n      returns (bool success)\n  {\n    require(keys[_key].key == _key, \"No such key\");\n    emit KeyRemoved(keys[_key].key, keys[_key].purpose, keys[_key].keyType);\n\n    delete keys[_key];\n\n    return true;\n  }\n  function getKeyFromAddress(address _addr) public constant returns (uint256 purpose, uint256 keyType, bytes32 key){\n    bytes32 key_h=keccak256(_addr);\n    return (keys[key_h].purpose,keys[key_h].keyType,keys[key_h].key);\n  }\n  function getHashed(address _addr) public constant returns(bytes32 myval){\n    return keccak256(_addr);\n  }\n}\n",
  "sourcePath": "/home/magneto/ethereum/ERC725/contracts/KeyHolder.sol",
  "compiler": {
    "name": "solc",
    "version": "0.4.25+commit.59dbf8f1.Emscripten.clang"
  },
  "schemaVersion": "2.0.2",
  "updatedAt": "2019-04-08T12:50:14.892Z"
}