{
  "contractName": "testCalling",
  "abi": [
    {
      "constant": false,
      "inputs": [],
      "name": "toBeCalled",
      "outputs": [],
      "payable": false,
      "stateMutability": "nonpayable",
      "type": "function"
    }
  ],
  "bytecode": "0x608060405234801561001057600080fd5b506101a9806100206000396000f300608060405260043610610041576000357c0100000000000000000000000000000000000000000000000000000000900463ffffffff16806399c8d1c014610046575b600080fd5b34801561005257600080fd5b5061005b61005d565b005b600015156000803373ffffffffffffffffffffffffffffffffffffffff1673ffffffffffffffffffffffffffffffffffffffff16815260200190815260200160002060009054906101000a900460ff161515141515610124576040517f08c379a00000000000000000000000000000000000000000000000000000000081526004018080602001828103825260168152602001807f6164647265737320616c726561647920766f746564210000000000000000000081525060200191505060405180910390fd5b60016000803373ffffffffffffffffffffffffffffffffffffffff1673ffffffffffffffffffffffffffffffffffffffff16815260200190815260200160002060006101000a81548160ff0219169083151502179055505600a165627a7a72305820fd45459f881ed38efea877ac70543083a0b8967687e7cfe08186ed8def967fa20029",
  "source": "pragma solidity ^0.4.25;\n\ncontract testCalling{\n  mapping(address=>bool) isVoted;\n  function toBeCalled() public {\n    require(isVoted[msg.sender]==false,\"address already voted!\");\n    isVoted[msg.sender]=true;\n  }\n}\n",
  "sourcePath": "/home/magneto/ethereum/ERC725/contracts/testCalling.sol",
  "compiler": {
    "name": "solc",
    "version": "0.4.25+commit.59dbf8f1.Emscripten.clang"
  },
  "schemaVersion": "2.0.2",
  "updatedAt": "2019-04-18T15:44:04.130Z"
}