{
  "contractName": "testCalling",
  "abi": [
    {
      "constant": true,
      "inputs": [],
      "name": "a",
      "outputs": [
        {
          "name": "",
          "type": "uint256"
        }
      ],
      "payable": false,
      "stateMutability": "view",
      "type": "function"
    },
    {
      "constant": false,
      "inputs": [
        {
          "name": "k",
          "type": "uint256"
        }
      ],
      "name": "toBeCalled",
      "outputs": [],
      "payable": false,
      "stateMutability": "nonpayable",
      "type": "function"
    }
  ],
  "bytecode": "0x608060405234801561001057600080fd5b50610207806100206000396000f30060806040526004361061004c576000357c0100000000000000000000000000000000000000000000000000000000900463ffffffff1680630dbe671f14610051578063e39fc5741461007c575b600080fd5b34801561005d57600080fd5b506100666100a9565b6040518082815260200191505060405180910390f35b34801561008857600080fd5b506100a7600480360381019080803590602001909291905050506100af565b005b60015481565b600015156000803373ffffffffffffffffffffffffffffffffffffffff1673ffffffffffffffffffffffffffffffffffffffff16815260200190815260200160002060009054906101000a900460ff161515141515610176576040517f08c379a00000000000000000000000000000000000000000000000000000000081526004018080602001828103825260168152602001807f6164647265737320616c726561647920766f746564210000000000000000000081525060200191505060405180910390fd5b60016000803373ffffffffffffffffffffffffffffffffffffffff1673ffffffffffffffffffffffffffffffffffffffff16815260200190815260200160002060006101000a81548160ff0219169083151502179055508060015401600181905550505600a165627a7a7230582025c3477fbaef181a9bbbbaee9b63c295c87ebd402aece11da7eb47623171e15f0029",
  "source": "pragma solidity ^0.4.25;\n\ncontract testCalling{\n  mapping(address=>bool) isVoted;\n  uint256 public a;\n  function toBeCalled(uint256 k) public {\n    require(isVoted[msg.sender]==false,\"address already voted!\");\n    isVoted[msg.sender]=true;\n    a=a+k;\n  }\n}\n",
  "sourcePath": "/home/magneto/ethereum/ERC725/contracts/testCalling.sol",
  "compiler": {
    "name": "solc",
    "version": "0.4.25+commit.59dbf8f1.Emscripten.clang"
  },
  "schemaVersion": "2.0.2",
  "updatedAt": "2019-04-18T19:21:47.868Z"
}