{
  "contractName": "VerifierContract",
  "abi": [
    {
      "constant": true,
      "inputs": [],
      "name": "trustedClaimHolder",
      "outputs": [
        {
          "name": "",
          "type": "address"
        }
      ],
      "payable": false,
      "stateMutability": "view",
      "type": "function"
    },
    {
      "constant": true,
      "inputs": [],
      "name": "trust",
      "outputs": [
        {
          "name": "",
          "type": "address"
        }
      ],
      "payable": false,
      "stateMutability": "view",
      "type": "function"
    },
    {
      "inputs": [
        {
          "name": "_trustedClaimHolder",
          "type": "address"
        }
      ],
      "payable": false,
      "stateMutability": "nonpayable",
      "type": "constructor"
    },
    {
      "anonymous": false,
      "inputs": [
        {
          "indexed": false,
          "name": "_identity",
          "type": "address"
        },
        {
          "indexed": false,
          "name": "claimType",
          "type": "uint256"
        }
      ],
      "name": "ClaimValid",
      "type": "event"
    },
    {
      "anonymous": false,
      "inputs": [
        {
          "indexed": false,
          "name": "_identity",
          "type": "address"
        },
        {
          "indexed": false,
          "name": "claimType",
          "type": "uint256"
        }
      ],
      "name": "ClaimInvalid",
      "type": "event"
    },
    {
      "constant": true,
      "inputs": [
        {
          "name": "_identity",
          "type": "address"
        },
        {
          "name": "claimType",
          "type": "uint256"
        }
      ],
      "name": "claimIsValid",
      "outputs": [
        {
          "name": "claimValid",
          "type": "bool"
        }
      ],
      "payable": false,
      "stateMutability": "view",
      "type": "function"
    },
    {
      "constant": true,
      "inputs": [
        {
          "name": "r",
          "type": "bytes32"
        },
        {
          "name": "s",
          "type": "bytes32"
        },
        {
          "name": "v",
          "type": "uint8"
        },
        {
          "name": "dataHash",
          "type": "bytes32"
        }
      ],
      "name": "getRecoveredAddress",
      "outputs": [
        {
          "name": "addr",
          "type": "address"
        }
      ],
      "payable": false,
      "stateMutability": "view",
      "type": "function"
    }
  ],
  "bytecode": "0x608060405234801561001057600080fd5b506040516020806106f68339810180604052810190808051906020019092919050505080600160006101000a81548173ffffffffffffffffffffffffffffffffffffffff021916908373ffffffffffffffffffffffffffffffffffffffff160217905550806000806101000a81548173ffffffffffffffffffffffffffffffffffffffff021916908373ffffffffffffffffffffffffffffffffffffffff16021790555050610632806100c46000396000f300608060405260043610610062576000357c0100000000000000000000000000000000000000000000000000000000900463ffffffff16806336938354146100675780636f9fdd66146100be5780639fecd55414610115578063b42f07821461017a575b600080fd5b34801561007357600080fd5b5061007c610214565b604051808273ffffffffffffffffffffffffffffffffffffffff1673ffffffffffffffffffffffffffffffffffffffff16815260200191505060405180910390f35b3480156100ca57600080fd5b506100d3610239565b604051808273ffffffffffffffffffffffffffffffffffffffff1673ffffffffffffffffffffffffffffffffffffffff16815260200191505060405180910390f35b34801561012157600080fd5b50610160600480360381019080803573ffffffffffffffffffffffffffffffffffffffff1690602001909291908035906020019092919050505061025f565b604051808215151515815260200191505060405180910390f35b34801561018657600080fd5b506101d260048036038101908080356000191690602001909291908035600019169060200190929190803560ff1690602001909291908035600019169060200190929190505050610529565b604051808273ffffffffffffffffffffffffffffffffffffffff1673ffffffffffffffffffffffffffffffffffffffff16815260200191505060405180910390f35b6000809054906101000a900473ffffffffffffffffffffffffffffffffffffffff1681565b600160009054906101000a900473ffffffffffffffffffffffffffffffffffffffff1681565b6000806000806000806000806000808b93506000809054906101000a900473ffffffffffffffffffffffffffffffffffffffff168b604051808373ffffffffffffffffffffffffffffffffffffffff1673ffffffffffffffffffffffffffffffffffffffff166c0100000000000000000000000002815260140182815260200192505050604051809103902092508373ffffffffffffffffffffffffffffffffffffffff1663c9100bcb846040518263ffffffff167c010000000000000000000000000000000000000000000000000000000002815260040180826000191660001916815260200191505060a060405180830381600087803b15801561036457600080fd5b505af1158015610378573d6000803e3d6000fd5b505050506040513d60a081101561038e57600080fd5b810190808051906020019092919080519060200190929190805190602001909291908051906020019092919080519060200190929190505050809950819a50829b50839c50849d5050505050506103e788888888610529565b915081604051808273ffffffffffffffffffffffffffffffffffffffff1673ffffffffffffffffffffffffffffffffffffffff166c01000000000000000000000000028152601401915050604051809103902090506000809054906101000a900473ffffffffffffffffffffffffffffffffffffffff1673ffffffffffffffffffffffffffffffffffffffff1663d202158d8260036040518363ffffffff167c010000000000000000000000000000000000000000000000000000000002815260040180836000191660001916815260200182815260200192505050602060405180830381600087803b1580156104dd57600080fd5b505af11580156104f1573d6000803e3d6000fd5b505050506040513d602081101561050757600080fd5b8101908080519060200190929190505050995050505050505050505092915050565b60008060008360405180807f19457468657265756d205369676e6564204d6573736167653a0a333200000000815250601c01826000191660001916815260200191505060405180910390209150600182868989604051600081526020016040526040518085600019166000191681526020018460ff1660ff1681526020018360001916600019168152602001826000191660001916815260200194505050505060206040516020810390808403906000865af11580156105ed573d6000803e3d6000fd5b50505060206040510351905080925050509493505050505600a165627a7a72305820f42bd3ded12fd6f3077b36943f397ad3843702ea5d6df53b44528344d53934460029",
  "source": "pragma solidity ^0.4.25;\n\nimport './ClaimHolder.sol';\n\ncontract VerifierContract{\n  event ClaimValid(ClaimHolder _identity, uint256 claimType);\n  event ClaimInvalid(ClaimHolder _identity, uint256 claimType);\n\n  ClaimHolder public trustedClaimHolder;\n  address public trust;\n\n   constructor(address _trustedClaimHolder) public {\n     trust=_trustedClaimHolder;\n    trustedClaimHolder = ClaimHolder(_trustedClaimHolder);\n  }\n\n  /* function checkClaim(ClaimHolder _identity, uint256 claimType)\n    public\n    returns (bool claimValid)\n  {\n    if (claimIsValid(_identity, claimType)) {\n      emit ClaimValid(_identity, claimType);\n      return true;\n    } else {\n      emit ClaimInvalid(_identity, claimType);\n      return false;\n    }\n  } */\n\n  function claimIsValid(address _identity, uint256 claimType)\n    public\n    constant\n    returns (bool claimValid)\n  {\n    address issuer;\n    bytes32 r;\n    bytes32 s;\n    uint8 v;\n    bytes32  data;\n    ClaimHolder  iden=ClaimHolder(_identity);\n    // Construct claimId (identifier + claim type)\n    bytes32 claimId = keccak256(trustedClaimHolder, claimType);\n\n    // Fetch claim from user\n    ( issuer, r,s,v, data) = iden.getClaim(claimId);\n\n    /* bytes32 dataHash = keccak256(_identity, claimType, data);\n    bytes32 prefixedHash = keccak256(\"\\x19Ethereum Signed Message:\\n32\", dataHash); */\n\n    // Recover address of data signer\n    address recovered = getRecoveredAddress(r,s,v, data);\n\n    // Take hash of recovered address\n    bytes32 hashedAddr = keccak256(recovered);\n\n    // Does the trusted identifier have they key which signed the user's claim?\n    return trustedClaimHolder.keyHasPurpose(hashedAddr, 3);\n  }\n\n  function getRecoveredAddress(bytes32 r,bytes32 s,uint8 v, bytes32 dataHash)\n      public\n      view\n      returns (address addr)\n  {\n      /* bytes32 ra;\n      bytes32 sa;\n      uint8 va;\n\n      // Check the signature length\n      if (sig.length != 65) {\n        return (0);\n      }\n\n      // Divide the signature in r, s and v variables\n      assembly {\n        ra := mload(add(sig, 32))\n        sa := mload(add(sig, 64))\n        va := byte(0, mload(add(sig, 96)))\n      }\n\n      if (va < 27) {\n        va += 27;\n      } */\n      bytes32 Hash = keccak256(\"\\x19Ethereum Signed Message:\\n32\", dataHash);\n      address recoveredAddress = ecrecover(Hash, v, r, s);\n\n      return (recoveredAddress);\n  }\n}\n",
  "sourcePath": "/home/magneto/ethereum/ERC725/contracts/VerifierContract.sol",
  "compiler": {
    "name": "solc",
    "version": "0.4.25+commit.59dbf8f1.Emscripten.clang"
  },
  "schemaVersion": "2.0.2",
  "updatedAt": "2019-04-18T15:44:04.128Z"
}